S0120000434F534D49432D496F542E737265631B
S11300000C9439000C9456000C9456000C94560031
S11300100C9456000C9456000C9456000C94560004
S11300200C9456000C9463000C9456000C945600E7
S11300300C9456000C949B000C9456000C9456009F
S11300400C9456000C9456000C9456000C945600D4
S11300500C9456007907AF07E50721084E08B3084A
S113006080087009B409EA09200A560A5D0A930A4D
S1130070C90A11241FBECFE5D8E0DEBFCDBF13E00F
S1130080A0E6B0E0E0E5F6E202C005900D92AA33E6
S1130090B107D9F725E0AAE3B3E001C01D92A23D60
S11300A0B207E1F70E94A30F0C9426130C940000EE
S11300B082E08EBD89B7846089BF8BE09EEF9DBDD1
S11300C08CBD789408951F920F920FB60F9211244D
S11300D02F933F934F935F936F937F938F939F934C
S11300E0AF93BF93EF93FF938BE09EEF9DBD8CBDC9
S11300F00E943609FF91EF91BF91AF919F918F912B
S11301007F916F915F914F913F912F910F900FBE0F
S11301100F901F90189510BC1BB810BC84E389B9CC
S11301208AB188698AB980B5866880BD08955D9B67
S1130130FECF8CB908951F920F920FB60F9211241F
S11301402F933F934F935F936F937F938F939F93DB
S1130150AF93BF93EF93FF938CB10E949205FF91ED
S1130160EF91BF91AF919F918F917F916F915F912B
S11301704F913F912F910F900FBE0F901F901895A4
S113018081110BC090E09C01220F331F820F931F3B
S1130190880F991F8E5A9C4F089580E090E008952F
S11301A00F931F93CF938B01C42F0E94C00000971D
S11301B069F0FC0120813181232B51F411830083E8
S11301C0C28314821382158281E003C080E001C0DF
S11301D080E0CF911F910F910895CF93C62F0E9475
S11301E0C000FC01892BD9F0808191810097C9F06E
S11301F0338122813217B8F42581DC01A20FB11DAD
S1130200CC9385818F5F858393819F5F93832281C4
S113021082130BC0921758F4158281E009C080E064
S113022007C080E005C080E003C081E001C081E038
S1130230CF910895CF93DF93EB010E94C000FC019E
S1130240892B21F180819181009711F1238122234F
S113025009F12481DC01A20FB11D8C918883A08156
S1130260B1818481A80FB11D1C9294819F5F9483F6
S11302708381815083832281921302C0811114826D
S113028081110AC01482158281E007C080E005C094
S113029080E003C080E001C081E0DF91CF91089548
S11302A00E94C000009739F0FC0120813181232B8A
S11302B021F08381089580E0089580E008950F93EC
S11302C01F93CF93DF93FC0101900020E9F731974E
S11302D0E81BF90BDB010D900020E9F71197ED0104
S11302E0C61BD70BCE17DF0784F4209771F00E944A
S11302F01A10FC0101900020E9F73197E81BF90B73
S1130300CE17DF0711F08C0F9D1FDF91CF911F9146
S11303100F9108950F931F93CF93DF93DC0120E097
S113032030E0C0E0D0E000E010E00FC086130BC066
S11303300F5F1F4F0417150721F4B9016C1B7D0BC8
S11303400CC0E90121962F5F3F4FFD01E20FF31F1F
S113035080818111EBCF60E070E06115710541F49B
S11303600F5F1F4F0417150719F4B9016C1B7D0BA0
S11303706115710509F1AB014F5F5F4F4F3F5105A7
S113038089F080F040E050E019C0FD01EC0FFD1F42
S1130390E20FF31F9081F901E85AFC4F90832F5F1D
S11303A03F4F02C020E030E02617370770F3F90111
S11303B0E85AFC4F108202C040E050E0CA01DF91CD
S11303C0CF911F910F910895CF92DF92EF92FF92F8
S11303D00F931F93FC0101900020E9F73197AF01BF
S11303E0481B590B6A01E12CF12CFB010190002000
S11303F0E9F731978F01061B170B20E030E00C154D
S11304001D052E053F0530F00E94FD0F892B21F0BC
S113041080E003C080E001C081E01F910F91FF9054
S1130420EF90DF90CF90089580913D03882379F079
S113043080913C0390E0FC01EE0FFF1FEE0FFF1FC5
S11304408E0F9F1FFC01ED59FB4F83E084830895B9
S113045084FF04C092B3906192BB03C092B39F7EA9
S113046092BB85FF04C092B3906292BB03C092B367
S11304709F7D92BB86FF04C092B3906492BB03C07D
S113048092B39F7B92BB882324F482B3806882BB9F
S1130490089582B38F7782BB0895CF93C82F807F4E
S11304A00E94280288B3877F88BB88B3806188BB99
S11304B087E893E10197F1F700C0000088B38F7ECD
S11304C088BB8C2F8295807F0E94280288B3877F07
S11304D088BB88B3806188BB87E893E10197F1F713
S11304E000C0000088B38F7E88BBCF91089582E05E
S11304F00E944D0288E20E944D028EE00E944D024D
S11305008CE00E944D0286E00E944D0281E00E9430
S11305104D0280E80E944D02089541E060E00E948F
S11305202604089540E0682F80E090E00E942604AD
S11305300895CF93DF93EC0180E80E949202CE01EC
S11305400E948D02DF91CF910895CF93DF93EC0148
S113055080EC0E949202CE010E948D02DF91CF9125
S113056008950E94A3048FEF81BB87BB0E9477028A
S11305708EE690E00E948D02089580913D038823C9
S113058091F080913C0390E0FC01EE0FFF1FEE0F11
S1130590FF1F8E0F9F1FFC01ED59FB4F8481833099
S11305A011F40E94730480913D03882309F40AC165
S11305B080913C0390E0FC01EE0FFF1FEE0FFF1F44
S11305C0E80FF91FED59FB4F34813130A1F5FC01DF
S11305D0EE0FFF1FEE0FFF1FE80FF91FED59FB4F42
S11305E02381211114C020913A03211124C0FC015C
S11305F0EE0FFF1FEE0FFF1FE80FF91FED59FB4F22
S113060020812223C1F022E020933A0314C02091D8
S11306103A03211110C0FC01EE0FFF1FEE0FFF1F64
S1130620E80FF91FED59FB4F41815281452B19F019
S113063022E020933A0320913A03233009F451C075
S113064028F4222351F0223071F00895243009F463
S11306504FC0253009F48AC00895323009F0B2C081
S11306600E9414020895FC01EE0FFF1FEE0FFF1FFE
S1130670E80FF91FED59FB4F22E024832381211158
S113068015C0FC01EE0FFF1FEE0FFF1F8E0F9F1F03
S1130690FC01ED59FB4F8081807F0E94280288B3C2
S11306A0877F88BB88B3806188BB17C0FC01EE0FCD
S11306B0FF1FEE0FFF1F8E0F9F1FFC01ED59FB4F15
S11306C00180F281E02D8081807F0E94280288B31E
S11306D0886088BB88B3806188BB83E080933A03D9
S11306E0089588B38F7E88BB84E080933A0308958D
S11306F0FC01EE0FFF1FEE0FFF1FE80FF91FED596E
S1130700FB4F2381211116C0FC01EE0FFF1FEE0FDA
S1130710FF1F8E0F9F1FFC01ED59FB4F80818295B7
S1130720807F0E94280288B3877F88BB88B380615A
S113073088BB18C0FC01EE0FFF1FEE0FFF1F8E0FCA
S11307409F1FFC01ED59FB4F0180F281E02D808158
S11307508295807F0E94280288B3886088BB88B312
S1130760806188BB85E080933A03089528B32F7E87
S113077028BBFC01EE0FFF1FEE0FFF1FE80FF91F50
S1130780ED59FB4F23812223D9F0FC01EE0FFF1F0B
S1130790EE0FFF1F8E0F9F1FFC01ED59FB4FA18130
S11307A0B281CD0101969283818311968C91882325
S11307B021F082E080933A03089510923A03089559
S11307C010923A030895DC0120913C0330E080E06C
S11307D036C0F901EE0FFF1FEE0FFF1FE20FF31FEC
S11307E0ED59FB4F9381941328C0F901EE0FFF1FBD
S11307F0EE0FFF1FE20FF31FED59FB4F908196138D
S11308001CC0F901EE0FFF1FEE0FFF1FE20FF31FD5
S1130810ED59FB4F0180F281E02DEA17FB0769F4E3
S1130820F901EE0FFF1FEE0FFF1FE20FF31FED594B
S1130830FB4F9481913009F481E02F5F3F4FE091A9
S11308403D03F0E02E173F0724F20895FF920F9323
S11308501F93CF93DF93C0913D03C431A8F5F42EC9
S1130860D62F8C010E94E303811130C080913B0399
S1130870282F30E0F901EE0FFF1FEE0FFF1FE20FEC
S1130880F31FED59FB4F9481911122C0F901EE0F32
S1130890FF1FEE0FFF1F2E0F3F1FF901ED59FB4FF6
S11308A091E09483D08312830183F3828F5F8093DA
S11308B03B039C0F90933D03843161F4943160F4C5
S11308C010923B0381E009C080E007C080E005C0CE
S11308D080E003C081E001C081E0DF91CF911F91EE
S11308E00F91FF90089520913C03822F90E0FC012A
S11308F0EE0FFF1FEE0FFF1FE80FF91FED59FB4F1F
S113090034813330F1F42F5F20933C0330913D0365
S1130910315030933D03243119F4311110923C03CA
S1130920311104C010923C0310923B03FC01EE0F02
S1130930FF1FEE0FFF1F8E0F9F1FFC01ED59FB4F92
S1130940148280E0089580E090E00EC0FC01EE0F78
S1130950FF1FEE0FFF1FE80FF91FED59FB4F108229
S11309601282118214820196843191057CF31092D3
S11309703C0310923B0310923D03089510924203EE
S1130980EBE2F5E08AEF90E0918380831282138298
S113099014821582178216821086109240030895DD
S11309A0EF92FF921F93CF93DF931F92CDB7DEB7E1
S11309B084E6E7ECF4E0DF011D928A95E9F71092F2
S11309C0410380E00E9450018093410310E014C071
S11309D0E12EF12C1982BE016F5F7F4F80E00E94EF
S11309E01A01811103C08AE00E944C098981F70130
S11309F0E953FB4F80831F5F80914103181740F335
S1130A000F90DF91CF911F91FF90EF90089509C04F
S1130A100E949700EBE2F5E0808191810196918339
S1130A208083E0912B05F0912C0580818111F0CF1A
S1130A308DE00E9497000895BC0187EC94E00E9429
S1130A405F010895CF93DF93D62FC42F0E941C0516
S1130A504C2F50E06D2F0E948A01DF91CF910895B1
S1130A600E94BE0484E6E7ECF4E0DF011D928A955F
S1130A70E9F71092410344E66BE675E080E00E94DA
S1130A80D00008950F931F93CF93DF93FC018091BF
S1130A904203811141C08901CB01BA0121E02093B5
S1130AA04203CBE2D5E0F983E88324E630E040E07A
S1130AB050E00E94A80F2A833B834C835D831F83ED
S1130AC00E8318868AE090E0A0E0B0E08093640092
S1130AD090936500A0936600B093670080E69AEE59
S1130AE0A0E0B0E08093600090936100A093620066
S1130AF0B09363001092400384E6E7ECF4E0DF0176
S1130B001D928A95E9F7109241030E94070583E03C
S1130B108093420381E001C080E0DF91CF911F9177
S1130B200F910895CF93C82F8D3011F08A3071F54D
S1130B3080913E038D3089F5CA3091F5809142034E
S1130B40833031F482E08093420390E081E030C04E
S1130B508230A1F480914003811106C084E0809327
S1130B60420390E081E024C08150809340036EE70B
S1130B7080E00E94ED0090E081E01AC0811113C072
S1130B8082E08093420390E081E012C080914203AE
S1130B90823061F090E080E00BC090E081E008C01A
S1130BA090E081E005C090E080E002C091E080E048
S1130BB0913021F46C2F80E00E94ED00C0933E033D
S1130BC0CF910895CF93DF93CDB7DEB72C970FB6AF
S1130BD0F894DEBF0FBECDBF462F6CE20E94220503
S1130BE0892BB1F068E573E0CE0101960E941310E1
S1130BF08FEFE8E5F3E0DF011D928A95E9F7CE0176
S1130C0001960E94DF0FBC01990F880B990B03C05A
S1130C1060E070E0CB012C960FB6F894DEBF0FBEF7
S1130C20CDBFDF91CF910895CF92DF92EF92FF92E3
S1130C30CF93C82FE0913105F0913205309721F020
S1130C408093330509959AC067EC74E083E790E0DC
S1130C500E94E401882341F0809144038B3009F021
S1130C608DC0109244038AC067EC74E08AE790E078
S1130C700E94E4018823C1F04091410320E00BC0AD
S1130C80822F90E0FC01E953FB4F3081FC01E35BD0
S1130C90FA4F30832F5F421798F783E08093510314
S1130CA081E0809350036AC067EC74E082E890E0CE
S1130CB00E94E4018823D1F061E082E890E00E9480
S1130CC0E2056B017C0162E082E890E00E94E205AB
S1130CD0CD28CE28CF2809F051C0672B682B692B6B
S1130CE009F04CC085E08093470348C067EC74E08A
S1130CF081E990E00E94E4018823E9F061E081E960
S1130D0090E00E94E2056B017C0162E081E990E0E1
S1130D100E94E205CD28CE28CF2851F4672B682BFA
S1130D20692B31F481E080933F031092490326C07C
S1130D3010923F0323C067EC74E08CE990E00E94BA
S1130D40E4018823C1F061E08CE990E00E94E205AF
S1130D506B017C0162E08CE990E00E94E205CD2801
S1130D60CE28CF2859F4672B682B692B39F489E0F6
S1130D708093470303C08C2F0E944209CF91FF90B8
S1130D80EF90DF90CF900895809142038230C9F1B3
S1130D9018F4813091F106C0833009F455C08430D1
S1130DA009F473C00E94BE048091600090916100B8
S1130DB0A0916200B09163000097A105B10569F0AC
S1130DC084569109A109B109809360009093610050
S1130DD0A0936200B09363005FC080E00E944C095E
S1130DE080E69AEEA0E0B0E080936000909361000A
S1130DF0A0936200B09363004FC082E00E94140687
S1130E004BC082E00E9414068091640090916500BA
S1130E10A0916600B09167000097A105B10561F04B
S1130E200197A109B1098093640090936500A09390
S1130E306600B093670030C00E94D00484E00E9432
S1130E4014060E94BE0428C080912D0590912E05A1
S1130E50A0912F05B09130050097A105B10579F057
S1130E600197A109B10980932D0590932E05A093B4
S1130E702F05B093300582E00E9414060DC083E074
S1130E800E9414060E94BE0407C00E94D00485E09C
S1130E900E9414060E94BE0480914203882361F0DC
S1130EA080E69AEEA0E0B0E0809360009093610049
S1130EB0A0936200B09363000E946A070E94950C9D
S1130EC00E945D090E942F0B0E947B0E089580935F
S1130ED043030895CF93DF93C09144038C2F90E094
S1130EE08730910508F06FC1FC01E65DFF4F0C945B
S1130EF0CA0F80914303811111C027E637E040ED0A
S1130F0057E060E070E087EA90E00E94420581309B
S1130F1009F05BC180934303D0E07AC18530C9F402
S1130F2080914103823051F46AEA70E087EC94E0E6
S1130F300E940A10892B21F080E003C080E001C0E8
S1130F4081E0882309F443C181E080934403D0E025
S1130F505FC18350823008F43CC1D0E059C1809114
S1130F604303811111C027E637E040ED57E060E00C
S1130F7070E08DEA90E00E944205813009F02BC1B7
S1130F8080934303D0E044C18530C9F48091410388
S1130F90823051F46AEA70E087EC94E00E940A100F
S1130FA0892B21F080E003C080E001C081E0882328
S1130FB009F413C182E080934403D0E029C1835033
S1130FC0823008F40CC1D0E023C180914303811125
S1130FD011C027E637E040ED57E060E070E08FEBAA
S1130FE090E00E944205813009F0FBC080934303E6
S1130FF0D0E00EC18530F9F468EC70E087EC94E041
S11310000E945F0166ED70E00E940A10892B09F0CE
S1131010EAC060ED70E087EC94E00E945F016AEA48
S113102070E00E940A10892B09F4DFC083E08093EA
S11310304403D0E0EDC08350823008F4D8C0D0E03F
S1131040E7C080914303811111C027E637E040EDEA
S113105057E060E070E08CED90E00E944205813042
S113106009F0C7C080934303D0E0D2C0853081F437
S113107061E083EE90E00E94E20560327105810533
S1131080910508F0B8C084E080934403D0E0C0C068
S11310908350823008F4B1C0D0E0BAC080914303D9
S11310A0811111C027E637E040ED57E060E070E0C1
S11310B08AEE90E00E944205813009F0A0C080933E
S11310C04303D0E0A5C08530A9F462E083EF90E04B
S11310D00E94E205613071058105910531F06530AA
S11310E071058105910509F08CC086E08093440365
S11310F0D0E08EC08350823008F485C0D0E088C030
S113110080914303811110C027E637E040ED57E09A
S113111060E070E08BEF90E00E944205813029F599
S113112080934303D0E028C08530C1F468EC70E0BC
S113113087EC94E00E945F01FC0120812223B9F036
S11311404AE050E0BC0184E091E00E94FD0F892B4D
S113115081F085E080934403D0E00EC08350823058
S113116050F0D0E009C0D0E007C0D0E005C0D1E025
S113117003C0D1E001C0D1E08091430381110FC0CD
S113118027E637E040ED57E060E070E08FE091E063
S11311900E9442058130E1F58093430339C08530D4
S11311A071F461E089E191E00E94E205613071052A
S11311B08105910551F58AE08093440329C0835049
S11311C0823030F524C0D0E023C0D0E021C0D1E08B
S11311D01FC0D1E01DC0D0E01BC0D1E019C0D1E0D8
S11311E017C0D0E015C0D0E013C0D1E011C0D1E0E9
S11311F00FC0D0E00DC0D1E00BC0D1E009C0D0E0F9
S113120007C0D1E005C0D1E003C0D1E001C0D1E006
S1131210D13069F480916800882331F08150809343
S113122068001092430303C086E0809343038091D7
S11312304303863031F48BE08093440381E00E94C1
S11312404C0980914403C81729F0109243038AE0A3
S113125080936800DF91CF9108950E943D0F089517
S11312600E94450F08950E94960F08950E94300928
S11312700E94330908950E942D0980914503882313
S1131280E1F3089584E6E7ECF4E0DF011D928A952A
S1131290E9F7109241030895823021F482E291E04B
S11312A00E94A50208958FEF8ABB87BB8BBB88BBC6
S11312B008950895809346030895CF93C0914703FA
S11312C080916D00863009F0C5C18C2F90E0883084
S11312D0910508F07EC1FC01EF5CFF4F0C94CA0F2E
S11312E080914603811111C02AE539E040ED57E0B1
S11312F060E070E084E391E00E944205813009F0EF
S11313006AC18093460380E08DC1853039F561E080
S113131082E491E00E94E205672B682B692B29F493
S113132081E08093470380E07DC180914103853053
S113133051F460E571E087EC94E00E940A10892B77
S113134021F080E003C080E001C081E0882309F43B
S113135044C181E08093470380E064C183508230BC
S113136008F43DC180E05EC180914603811111C043
S11313702AE539E040ED57E060E070E086E591E071
S11313800E944205813009F02CC18093460380E01D
S113139049C18530C9F480914103823051F46AEA2D
S11313A070E087EC94E00E940A10892B21F080E021
S11313B003C080E001C081E0882309F414C182E005
S11313C08093470380E02EC18350823008F40DC11E
S11313D080E028C180914603811111C02AE539E0DB
S11313E040ED57E060E070E089E791E00E9442053B
S11313F0813009F0FCC08093460380E013C185303E
S1131400C9F480914103823051F46AEA70E087ECB8
S113141094E00E940A10892B21F080E003C080E050
S113142001C081E0882309F4E4C083E0809347038A
S113143080E0F8C08350823008F4DDC080E0F2C060
S113144080914603811111C02AE539E040ED57E04F
S113145060E070E08CE891E00E944205813009F080
S1131460CCC08093460380E0DDC08530C9F4809110
S11314704103823051F46AEA70E087EC94E00E9400
S11314800A10892B21F080E003C080E001C081E0D4
S1131490882309F4B4C084E08093470380E0C2C089
S11314A08350823008F4ADC080E0BCC080916900F4
S11314B081508093690080E0B5C08091460381111A
S11314C011C02AE539E040ED57E060E070E080EEBD
S11314D091E00E944205813009F095C08093460353
S11314E080E0A0C08530C9F480914103813051F47B
S11314F068EF71E087EC94E00E940A10892B21F0D8
S113150080E003C080E001C081E0882309F47DC04D
S113151086E08093470380E085C08350823008F4DE
S113152076C080E07FC080914603811111C02AE516
S113153039E040ED57E060E070E08AEF91E00E940E
S11315404205813009F065C08093460380E06AC09B
S11315508530C9F480914103823051F46AEA70E025
S113156087EC94E00E940A10892B21F080E003C0EC
S113157080E001C081E0882309F44DC087E08093B6
S1131580470380E04FC08350823008F446C080E0B7
S113159049C080914603811110C02AE539E040ED2D
S11315A057E060E070E08BE092E00E9442058130F9
S11315B0B1F58093460380E035C0853029F488E096
S11315C08093470380E02EC08350823050F180E046
S11315D029C080E027C080E025C080E023C081E0EE
S11315E021C080E01FC081E01DC081E01BC080E0FD
S11315F019C081E017C081E015C080E013C081E00C
S113160011C081E00FC080E00DC081E00BC081E01B
S113161009C080E007C081E005C081E003C080E02C
S113162001C081E0813069F480916A00882331F03F
S1131630815080936A001092460303C086E0809331
S1131640460380914703C81729F0109246038AE0A5
S113165080936A00CF910895809348030895EF9290
S1131660FF921F93CF93DF93CDB7DEB764970FB686
S1131670F894DEBF0FBECDBF10914903809147039C
S1131680893009F043C1133009F48CC030F41130AF
S113169059F0123009F450C006C1143009F4B3C033
S11316A0153009F4E0C0FFC080914803811123C0C4
S11316B01F9280E18F9389E192E09F938F93CE01F3
S11316C001967C019F938F930E943C102CE23BE097
S11316D040ED57E060E070E0C7010E9442050F90C2
S11316E00F900F900F900F900F90813011F4809312
S11316F0480380E0F3C08530C9F480914103813010
S113170051F468EF71E087EC94E00E940A10892B91
S113171021F080E003C080E001C081E0882309F467
S1131720C4C082E08093490380E0D8C083508230F3
S113173008F4BDC080E0D2C080914803811111C07B
S11317402CE23BE040ED57E060E070E08CE292E098
S11317500E944205813009F0ACC08093480380E0C8
S1131760BDC08530C9F480914103823051F46AEAE6
S113177070E087EC94E00E940A10892B21F080E04D
S113178003C080E001C081E0882309F494C083E0B1
S11317908093490380E0A2C08350823008F48DC056
S11317A080E09CC080914803811111C02CE23BE091
S11317B040ED57E060E070E08DE392E00E94420566
S11317C0813009F07CC08093480380E087C0853075
S11317D009F077C080914103813051F468EF71E0E2
S11317E087EC94E00E940A10892B21F080E003C06A
S11317F080E001C081E0882309F465C084E080931F
S1131800490380E06BC080914803811111C02CE230
S11318103BE040ED57E060E070E084E395E00E9437
S11318204205813009F051C08093480380E056C0DE
S1131830853009F04CC080914103823051F46AEA4A
S113184070E087EC94E00E940A10892B21F080E07C
S113185003C080E001C081E08823D9F185E0809352
S1131860490380E03BC080914803811110C02CE201
S11318703BE040ED57E060E070E082E592E00E94DA
S11318804205813041F58093480380E027C08530CC
S113189029F486E08093490380E020C0835082309D
S11318A0E0F080E01BC080E019C081E017C081E057
S11318B015C080E013C081E011C081E00FC080E05A
S11318C00DC080E00BC081E009C080E007C080E06B
S11318D005C080E003C080E001C081E0813069F48C
S11318E080916B00882331F0815080936B001092BB
S11318F0480303C086E08093480380914703181788
S113190029F01092480382E380936B0064960FB62B
S1131910F894DEBF0FBECDBFDF91CF911F91FF9032
S1131920EF90089580934A030895CF9380914403E0
S11319308A3009F05EC1C0916D00C33009F479C0EA
S113194028F4C13051F0C230F1F112C1C43009F4AD
S1131950A6C0C53009F4D9C00BC180914A038111D6
S113196011C022E93CE040ED57E060E070E085E61C
S113197092E00E944205813009F0FCC080934A0342
S113198080E015C18530C9F480914103823051F45F
S11319906AEA70E087EC94E00E940A10892B21F037
S11319A080E003C080E001C081E0882309F4E4C042
S11319B082E080936D0080E0FAC08350823008F4A6
S11319C0DDC080E0F4C080914A03811111C022E996
S11319D03CE040ED57E060E070E081E892E00E9476
S11319E04205813009F0CCC080934A0380E0DFC017
S11319F08530C9F480914103823051F46AEA70E081
S1131A0087EC94E00E940A10892B21F080E003C047
S1131A1080E001C081E0882309F4B4C083E08093AE
S1131A206D0080E0C4C08350823008F4ADC080E013
S1131A30BEC080914A03811111C022E93CE040ED0F
S1131A4057E060E070E08BE992E00E94420581304B
S1131A5009F09CC080934A0380E0A9C08530C9F492
S1131A6080914103823051F46AEA70E087EC94E09B
S1131A700E940A10892B21F080E003C080E001C09D
S1131A8081E0882309F484C084E080936D0080E0C1
S1131A908EC08350823008F47DC080E088C080917D
S1131AA04A03811111C022E93CE040ED57E060E0B7
S1131AB070E08EEB92E00E944205813009F06CC028
S1131AC080934A0380E073C08530C9F48091410358
S1131AD0823051F46AEA70E087EC94E00E940A10C4
S1131AE0892B21F080E003C080E001C081E08823DD
S1131AF009F454C085E080936D0080E058C08350A1
S1131B00823008F44DC080E052C080914A038111B4
S1131B1010C022E93CE040ED57E060E070E089EE5F
S1131B2092E00E9442058130E9F580934A0380E007
S1131B303EC08530C1F480914103823051F46AEA99
S1131B4070E087EC94E00E940A10892B21F080E079
S1131B5003C080E001C081E0882331F186E08093F6
S1131B606D0080E024C08350823000F180E01FC00B
S1131B7080E01DC080E01BC081E019C081E017C077
S1131B8080E015C081E013C081E011C080E00FC087
S1131B9081E00DC081E00BC080E009C081E007C096
S1131BA081E005C080E003C081E001C081E08130B4
S1131BB069F480916C00882331F0815080936C002B
S1131BC010924A0303C086E080934A0380914A033B
S1131BD0863031F487E080936D0081E00E944C09E7
S1131BE080916D00C81729F010924A038AE080930F
S1131BF06C00CF9108951F9291E09F931F928F9351
S1131C0082E193E09F938F9384E395E09F938F9376
S1131C100E943C108DB79EB708960FB6F8949EBFED
S1131C200FBE8DBF0895EF92FF920F931F93CF9332
S1131C30DF93EC01DC010D900020E9F71197A81B5C
S1131C40B90B40E050E046C0FA01E35BFA4F9081E3
S1131C50888198133DC0FA01E25BFA4F9081898133
S1131C60981336C02DC0FE01E20FF31F7081F801F6
S1131C70E35BFA4F9081791328C08FEFE81AF80AD2
S1131C80AE15BF05C1F40F5F1F4F20E030E008C060
S1131C90F901E55BFC4F80832F5F3F4F0F5F1F4FC0
S1131CA0F801E35BFA4F80818613F2CF8BE493E073
S1131CB00E94DF0F19C02F5F3F4F0F5F1F4F05C0FA
S1131CC08A01E12CF12C20E030E02A173B075CF27A
S1131CD04F5F5F4F2091410330E02A1B3B0B4217BB
S1131CE053070CF4B1CF80E0DF91CF911F910F9196
S1131CF0FF90EF900895EF92FF920F931F93CF936D
S1131D00DF93CDB7DEB72A970FB6F894DEBF0FBEC8
S1131D10CDBF809151038330D1F018F4882341F072
S1131D208BC0843009F480C0853009F474C084C049
S1131D3080914703893009F07FC08FEF0E94FB0D2B
S1131D4081E08093490383E08093510375C08091BF
S1131D505003813009F070C01092500362E28BE7A7
S1131D6090E00E94130EF82E1F928F9389E292E066
S1131D709F938F938E010A5F1F4F1F930F930E94AF
S1131D803C101A86C8010E94A5020F900F900F9074
S1131D900F900F900F908FEFF81204C085E080939E
S1131DA0510308C091E0F91204C084E08093510308
S1131DB001C01BBA6DE78CE293E00E94130E182F4A
S1131DC01F928F9389E292E09F938F93CE010196A5
S1131DD07C019F938F930E943C101D8286EC0E948D
S1131DE09202C7010E948D020F900F900F900F90E6
S1131DF00F900F90113041F482E393E00E94990216
S1131E001BBA8FEF88BB18C085E393E00E94990248
S1131E108FEF8BBB11C080E00E94FB0D81E08093AB
S1131E2049038093510308C081E00E94FB0D81E0C7
S1131E3080934903809351032A960FB6F894DEBF2A
S1131E400FBECDBFDF91CF911F910F91FF90EF9007
S1131E5008950E9458000E9430050E9453090E9470
S1131E608B000E94B10208950E94590908950E94AE
S1131E70C40608950E94BD0208950E94290F80910E
S1131E80D10588608093D10508954091CF05509184
S1131E90D0059A01ADECBCEC0E94D00F96958795C5
S1131EA096958795969587959C01220F331F880FE9
S1131EB0991F880F991F880F991F820F931F21E084
S1131EC04817590709F020E08091D10520FB81F9DA
S1131ED08093D1059A013695279536952795ABE7DA
S1131EE0B4E10E94D00F9695879564E6689F9001AF
S1131EF0699F300D112491E04217530709F090E0D7
S1131F008091D10590FB82F98093D1054F5F5F4F9B
S1131F105093D0054093CF054536510530F081E00C
S1131F2090E09093D0058093CF0508950E943A0FD6
S1131F308091D10581FD0E94340F8091D10582FDED
S1131F400E94370F08950E943B0980E090E00895B5
S1131F50A1E21A2EAA1BBB1BFD010DC0AA1FBB1FA9
S1131F60EE1FFF1FA217B307E407F50720F0A21B1B
S1131F70B30BE40BF50B661F771F881F991F1A9488
S1131F8069F760957095809590959B01AC01BD01B2
S1131F90CF010895EE0FFF1F0590F491E02D0994F1
S1131FA0A29FB001B39FC001A39F700D811D112496
S1131FB0911DB29F700D811D1124911D0895FC0186
S1131FC088279927E89421912032E9F3293010F0E9
S1131FD02E30C8F32B3241F02D3239F4689404C00A
S1131FE00E943410820F911D219120532A30C0F396
S1131FF01EF4909581959F4F0895FB01DC0104C068
S11320008D910190801921F441505040C8F7881BEC
S1132010990B0895FB01DC018D9101908019011049
S1132020D9F3990B0895FB01DC0101900D92002076
S1132030E1F70895FB0151915523A9F0BF01DC019B
S11320404D9145174111E1F759F4CD01019000205C
S113205049F04D9140154111C9F3FB014111EFCFF6
S113206081E090E0019708957AE0979F902D879FF3
S1132070802D910D11240895AEE0B0E0E2E4F0E18A
S11320800C94FD120D891E8986E08C831A830983C2
S11320908FEF9FE79E838D83AE01475E5F4F6F890D
S11320A0788DCE0101960E945E10EF81F885E00FD5
S11320B0F11F10822E96E4E00C941913ABE0B0E00B
S11320C0E4E6F0E10C94EF126C017B018A01FC015F
S11320D017821682838181FFCCC1CE0101963C0117
S11320E0F6019381F70193FD859193FF81917F011F
S11320F0882309F4BAC1853239F493FD859193FF9D
S113210081917F01853229F4B60190E00E94551235
S1132110E7CF912C212C312CFFE1F315D8F08B3231
S113212079F038F4803279F08332A1F4232D2061E0
S11321301DC08D3261F0803369F4232D216016C0F7
S1132140832D8260382EE32DE4603E2E2AC0F32DC9
S1132150F8601DC037FC2DC020ED280F2A3040F058
S11321608E32B9F436FC81C1232D2064322E19C07D
S113217036FE06C08AE0989E200D1124922E11C0CE
S1132180EAE02E9E200D1124222EF32DF0623F2E24
S113219008C08C3621F4832D8068382E02C088361E
S11321A041F4F70193FD859193FF81917F018111A2
S11321B0B3CF982F9F7D9554933028F40C5F1F4F15
S11321C09FE399830DC0833631F0833771F08335F3
S11321D009F059C021C0F801808189830E5F1F4F27
S11321E088248394912C530113C02801F2E04F0EEC
S11321F0511CF801A080B18036FE03C0692D70E047
S113220002C06FEF7FEFC5010E944A124C018201A8
S1132210F32DFF773F2E16C0280122E0420E511CF9
S1132220F801A080B18036FE03C0692D70E002C0C1
S11322306FEF7FEFC5010E943F124C01F32DF06850
S11322403F2E820133FC1BC0822D90E08816990634
S1132250B0F4B60180E290E00E9455122A94F4CFC3
S1132260F50137FC859137FE81915F01B60190E05D
S11322700E94551221102A9421E0821A9108811497
S1132280910471F7E8C0843611F0893641F5F801FC
S113229037FE07C060817181828193810C5F1F4F7B
S11322A008C060817181072E000C880B990B0E5FAA
S11322B01F4FF32DFF763F2E97FF09C09095809511
S11322C0709561957F4F8F4F9F4FF0683F2E2AE0A6
S11322D030E0A3010E949112882E861845C08537EC
S11322E031F4232D2F7EB22E2AE030E025C0932D29
S11322F0997FB92E8F36C1F018F4883579F0B5C0BE
S1132300803719F0883721F0B0C0E92FE061BE2E84
S1132310B4FE0DC0FB2DF460BF2E09C034FE0AC00C
S1132320292F2660B22E06C028E030E005C020E147
S113233030E002C020E132E0F801B7FE07C060815E
S11323407181828193810C5F1F4F06C0608171810E
S113235080E090E00E5F1F4FA3010E949112882E2F
S11323608618FB2DFF773F2E36FE0DC0232D2E7FC2
S1132370A22E891458F434FE0BC032FC09C0832DFC
S11323808E7EA82E05C0B82CA32C03C0B82C01C087
S1132390B92CA4FE0FC0FE01E80DF11D808180332D
S11323A021F49A2D997EA92E09C0A2FE06C0B394E9
S11323B0B39404C08A2D867809F0B394A3FC11C0A9
S11323C0A0FE06C0B21488F4280C922C9B180EC0F0
S11323D0B21460F4B60180E290E00E945512B39406
S11323E0F7CFB21418F42B1802C0982C212CA4FE99
S11323F010C0B60180E390E00E945512A2FE17C0FF
S1132400A1FC03C088E790E002C088E590E0B60133
S11324100CC08A2D867859F0A1FE02C08BE201C05F
S113242080E2A7FC8DE2B60190E00E945512891467
S113243038F4B60180E390E00E9455129A94F7CFE5
S11324408A94F301E80DF11D8081B60190E00E94A9
S113245055128110F5CF222009F442CEB60180E254
S113246090E00E9455122A94F6CFF6018681978156
S113247002C08FEF9FEF2B96E2E10C940B13FC014B
S11324800590615070400110D8F7809590958E0F9B
S11324909F1F0895FC016150704001900110D8F70E
S11324A0809590958E0F9F1F08950F931F93CF9340
S11324B0DF93FB01238121FD03C08FEF9FEF2CC02D
S11324C022FF16C046815781248135814217530764
S11324D044F4A081B1819D012F5F3F4F318320835C
S11324E08C93268137812F5F3F4F3783268314C017
S11324F08B01EC01FB010084F185E02D0995892B0A
S1132500E1F6D80116968D919C911797019617962E
S11325109C938E931697CE01DF91CF911F910F91CB
S11325200895FA01AA27283051F1203181F1E89465
S11325306F936E7F6E5F7F4F8F4F9F4FAF4FB1E0B2
S11325403ED0B4E03CD0670F781F891F9A1FA11DAD
S1132550680F791F8A1F911DA11D6A0F711D811DAE
S1132560911DA11D20D009F468943F912AE0269F73
S113257011243019305D3193DEF6CF010895462FD2
S11325804770405D4193B3E00FD0C9F7F6CF462FB3
S11325904F70405D4A3318F0495D31FD405241931C
S11325A002D0A9F7EACFB4E0A695979587957795D9
S11325B06795BA95C9F700976105710508959B0160
S11325C0AC010A2E06945795479537952795BA95E9
S11325D0C9F7620F731F841F951FA01D08952F92C2
S11325E03F924F925F926F927F928F929F92AF929F
S11325F0BF92CF92DF92EF92FF920F931F93CF93EC
S1132600DF93CDB7DEB7CA1BDB0B0FB6F894DEBF82
S11326100FBECDBF09942A88398848885F846E84A8
S11326207D848C849B84AA84B984C884DF80EE80F2
S1132630FD800C811B81AA81B981CE0FD11D0FB6FB
S1132640F894DEBF0FBECDBFED010895F894FFCF1F
S113265060EA00000A0000000A1E0A320A01496EFC
S11326606974002B43545A563A007B22636D6422EA
S11326703A002B434D515454434F4E4E4543543A24
S1132680002B434D5154545055423A002B434D5165
S113269054545355423A004154004F4B0041542B7B
S11326A0434E4D493D312C302C302C302C300041E0
S11326B0542B4350494E3F002B4350494E3A20007F
S11326C02B4350494E3A52454144590041542B43FF
S11326D05351002B4353513A200041542B4352454C
S11326E0473F002B435245473A200041542B435067
S11326F053493F004C54452C4F6E6C696E65004144
S1132700542B43474154543F002B43474154543ABC
S1132710200047534D5F4E6F745F436F6E6E656369
S11327207465640041542B434D51545453544152E5
S113273054002B434D51545453544152543A2000A5
S11327404552524F520041542B434D51545441432E
S113275043513D302C22434F534D49435F446576EA
S11327606963653031222C310041542B434D51545F
S11327705453534C4346473D302C300041542B4373
S11327804D515454434F4E4E4543543D302C2274C6
S113279063703A2F2F61316E776371727031716A91
S11327A06A746D2D6174732E696F742E61702D734C
S11327B06F7574682D312E616D617A6F6E617773F8
S11327C02E636F6D3A38383833222C36302C310072
S11327D041542B434D515454535542544F50494343
S11327E03D302C31362C31003E0070726A30312F6E
S11327F06370303030312F7375620041542B434D78
S11328005154545355423D300041542B434D51547F
S113281054544F5049433D302C25640070726A3043
S1132820312F6370303030312F7075620041542B7A
S1132830434D5154545041594C4F41443D302C3236
S1132840350041542B434D5154545055423D302C86
S1132850312C36300041542B4353534C4346473DAF
S11328602273736C76657273696F6E222C302C340C
S11328700041542B4353534C4346473D22617574E6
S1132880686D6F6465222C302C320041542B435305
S1132890534C4346473D22636163657274222C3076
S11328A02C226361636572742E70656D220041543D
S11328B02B4353534C4346473D22636C69656E7406
S11328C063657274222C302C22636C69656E7463A8
S11328D06572742E70656D220041542B4353534C22
S11328E04346473D22636C69656E746B6579222C9F
S11328F0302C22636C69656E746B65792E70656D1E
S113290022007B22636D64223A256422646174612F
S1132910227B226D31223A25647D7D00226D312295
S10D29203A006F6E006F6666000057
S9030000FC
