S0120000434F534D49432D496F542E737265631B
S11300000C9443080C9460080C9460080C946008E9
S11300100C9460080C9460080C9460080C946008BC
S11300200C9460080C946D080C9460080C9460089F
S11300300C9460080C94A8080C9460080C94600854
S11300400C9460080C9460080C9460080C9460088C
S11300500C946008AC11F01126125C1292129912E1
S1130060CF120513E4141A15501572159415B5150D
S1130070EC15D6152216591643168F16C616B01649
S1130080FC163217451837176D17A317D9170F1811
S11300902D2D2D2D2D424547494E205253412050A0
S11300A0524956415445204B45592D2D2D2D2D0A8D
S11300B04D4949456F77494241414B43415145417F
S11300C0736E617747346474354F75426E376D399A
S11300D03352616633456C383564476F4C76672F0D
S11300E036465A3779617745427651643549586DB9
S11300F00A38646E6F4F377A577A46785A74315695
S1130100622B70425952436F5131394A315A425627
S11301103869726752485A5A5875534F774C72323D
S11301205169316D70416A7A6A47774677356969F2
S11301306C0A366772706B395A506548587572612B
S1130140425565764D3256395337706B6F67314F70
S1130150624A7358674A4A49416875347342744F16
S113016034477168774836377969753247466A3556
S113017054560A43463853315142706951706E36B1
S11301803248355850465A496C5A48414942656686
S1130190564431424B386551694268513539442FD0
S11301A05A6E2F6E38627034314D77643771636BD9
S11301B04769590A45765162347948625071313041
S11301C07967334F43634E576471554D392B554C02
S11301D04B4B6A304F4B746854595A2F376F766AB9
S11301E073397356433638527643486E4C7A554BBE
S11301F0635849330A615A66646634557233564DFE
S11302006343556F36637075485254434D433062AF
S11302106C744C35624266356747514944415141DB
S113022042416F49424141542F356A63664F436AE4
S1130230746F4267460A63426739686754353268A7
S1130240486D4B62774849474D3136516E68553891
S1130250754F457A685075415357676A634B4E3002
S1130260704B58416B537A787A5A356C3869666F9B
S1130270354E537853650A745870395A5A31616C43
S11302804F4B4F3657536C30754C5568444F58326A
S11302905254736D576B5A516D796F475A73577136
S11302A065744B416F484375427370725341517981
S11302B06145432B7142380A5272492B46714E37BD
S11302C04933624A6B696172644778586C4C4535AE
S11302D02B3655634C6B6E624C6D71644A624A6D89
S11302E057506C6150364D455557646E61334172B9
S11302F04E30436B784B36580A765879772F6773AC
S11303003064414776676436482F44467670677890
S11303103439515A6477614E45455365446C785578
S113032037425468667838336975355270394E7679
S11303304D727962586F5447660A34774B644F6F35
S1130340452B634873443673693251415746647789
S11303505950673867333446537A564B715A5A3971
S11303606154424451744343584836612B57362BE9
S113037034365850622F7953796C0A75706D474141
S11303806A4543675945413536756F7A51626D6DDB
S11303904E307A734468686735644A37514C7477D1
S11303A0443956447049336D7178612F70537876AF
S11303B0322F56483446424C5A4B730A684B5543C5
S11303C04B6F43694C335977383741304E575A4550
S11303D07830564A4677454777567A637644796843
S11303E05167685677624D6255565974456D743835
S11303F056656E474867457A5A5575350A68714798
S11304004269466C725333687568594154414F5779
S11304102B4D527A514364616D53694D4F2F6135B1
S11304204B6442482F324D556459725172735A725B
S1130430772B33734367594541785453570A7150A6
S1130440444D70715A6451367A4C5656394251773C
S11304507866794F6A46454E6E736A6334632F69D2
S11304602B424C4170473536707A35726E65437154
S113047031442B35716166467750672B77380A73A0
S1130480562B6448765773362B796A34796A4C57FD
S113049034714D6266737A6A6253424E794D305AB2
S11304A0303861514A5A6670334471586F63345519
S11304B06A595A384B48773664562F6E456D4B0A45
S11304C0686F394746336B744E31556B73417349CA
S11304D06A744B37713030566539355270506176D5
S11304E0784E6E3035487343675941706F6E344AA5
S11304F0717333536478364D38765544637A4D447A
S11305000A39317A48436871394C6158306C446B0C
S1130510654F3562654D726A346D6F41654D706625
S1130520796C723057366C73376347424879306A56
S1130530327439527767354570497A51566D427A2B
S11305404C0A623549446A662F72656362564455A3
S11305506D3458377A4F713937424562497336449E
S11305606B466177306564674F4559725A714936F5
S1130570524771774E4E54454A50496C5A7353480A
S113058053760A5070312B3071564B54644B454AA4
S11305904B45646F427A6939514B426751435378F2
S11305A066347742504338512B76384E336F71732B
S11305B07A653265466F2B42516A4F37764E423424
S11305C03572750A6B4671366458657161744853A7
S11305D063706E524A6E34486F467A456E42777342
S11305E047734A6458595671696E31474A70306688
S11305F072376754444C355343506D6F79535332BB
S11306003765764E0A7A44454579796173543730B3
S113061050312B4A535264507570676A52634D616E
S1130620476772476F5472426A506877714A364F0F
S11306306A70734B61306A733956715462795737F3
S113064049735A58470A6C46585253774B42674687
S11306503778756C6E715A36482B6B676D57354811
S1130660496B374A4B4E3341674D384A314F503608
S1130670437A34327065633775416175762F426B06
S1130680755A632B51460A7350525A38537246595D
S11306906A503639794343415A74444879572F4D47
S11306A051342F7041557A62522F7366644C4571F0
S11306B02B62487173584873366634714F384C4511
S11306C041434D654F51550A575647424E70757315
S11306D0715137486C6F32633836362B764C794B10
S11306E03863732F6D6E4A49697869644E7A6B4436
S11306F06C7847546B36526971756A460A2D2D2DF4
S11307002D2D454E442052534120505249564154B8
S113071045204B45592D2D2D2D2D0A002D2D2D2DE8
S11307202D424547494E2043455254494649434189
S113073054452D2D2D2D2D0A4D49494457544343DD
S1130740416B476741774942416749554853446281
S11307506A526F5244754A4F5A452F6F2B59784A43
S11307606C514577434B4D774451594A4B6F5A4925
S11307706876634E4151454C0A4251417754544680
S11307804C4D456B4741315545437778435157317B
S113079068656D39754946646C596942545A584ABA
S11307A03261574E6C6379425050554674595870B3
S11307B0766269356A623230670A5357356A4C6922
S11307C0424D50564E6C5958523062475567553118
S11307D051395632467A61476C755A33527662699A
S11307E04244505656544D423458445449794D5419
S11307F045774F4445784D4441780A4D566F5844E7
S11308005451354D54497A4D54497A4E546B314FB5
S1130810566F77486A45634D426F474131554541AC
S11308207777545156645449456C76564342445A3A
S1130830584A3061575A70593246300A5A54434321
S1130840415349774451594A4B6F5A496876634E2C
S113085041514542425141446767455041444343F5
S113086041516F4367674542414C4A327342754870
S113087062655472675A2B35766430570A6E39783C
S11308804A664F585271433734502B685765386D58
S11308907342416230486553463576485A3644754A
S11308A0383173786357626456572F7151574551E5
S11308B071454E665364575156664971340A455220
S11308C0325756376B6A734336396B49745A7151D0
S11308D0493834787342634F596F70656F4B365A99
S11308E0505754336831377132675648727A4E6CB8
S11308F0665575365A4B494E546D796246340A43EF
S11309005353414962754C4162547542716F63425D
S11309102B75386F72746868592B55315168664568
S113092074554161596B4B5A2B74682B567A78571E
S1130930534A5752774341586E3151395153760ACD
S1130940486B496759554F66512F325A2F352F47F7
S113095036654E544D4865366E4A426F6D424C3092
S1130960472B4D68327A3674644D6F4E7A676E4405
S1130970566E616C4450666C4379696F3944697290
S11309800A59553247662B364C34375062465175F6
S1130990764562776835793831436E46794E326DE3
S11309A05833582B464B39315448416C4B4F6E4B9E
S11309B062683055776A4174473562532B577758CC
S11309C02B0A59426B434177454141614E674D467D
S11309D03477487759445652306A42426777466FB3
S11309E041556364353979764A6A67362F71536D98
S11309F0496341526646753958686D4A457748518E
S1130A0059440A5652304F424259454642557A6437
S1130A10716E396E356C6169445A5561556B484540
S1130A20426D564D4E75794D417747413155644578
S1130A307745422F7751434D414177446759445696
S1130A405230500A4151482F424151444167654157
S1130A504D413047435371475349623344514542F2
S1130A6043775541413449424151444A7A6267626D
S1130A70695A7A5A553042732F31374F327665525C
S1130A80615663520A48514153476555774A445168
S1130A903877696278417969425576704956474892
S1130AA06C714D533264554F4C5A5777334D534400
S1130AB0706636654E392F66586E756D4E5A4A35D6
S1130AC049557968430A342B655645504B7A41366B
S1130AD04B6C38745238686A41674D364543395215
S1130AE068456235587058374A514F6F31695056CE
S1130AF042644A703850386F6D472B565774334DE3
S1130B00552B6E6171670A5552595A7A3847385ACB
S1130B10557034486B7675656D6D736242716B39CF
S1130B2061636A745041753042644A31352B5445CF
S1130B30615741375755494E59717A654F6C332B7C
S1130B40385A31574B78620A6C76384644655841B6
S1130B506F752F484A78306571486B687963757989
S1130B60704E3463653375365649734B38596D632B
S1130B704436784D42435241446265687A4279442E
S1130B80307149316155735A0A6A51503263675260
S1130B904B76454C4A482F4832707A3348452B48A7
S1130BA07A45574B656A4466535A43496D674278A0
S1130BB05973684A5932694C6E395767676D48678B
S1130BC061433954580A2D2D2D2D2D454E44204373
S1130BD0455254494649434154452D2D2D2D2D0A46
S1130BE0002D2D2D2D2D424547494E20434552546D
S1130BF0494649434154452D2D2D2D2D0A4D494932
S1130C00445154434341696D6741774942416749BF
S1130C1054426D79667A356D2F6A416F3534764268
S1130C2034696B506D6C6A5A62796A414E42676BE3
S1130C3071686B694739773042415173460A4144C0
S1130C4041354D5173774351594456515147457776
S1130C504A56557A45504D413047413155454368D0
S1130C604D4751573168656D39754D526B774677ED
S1130C7059445651514445784242625746360A62B5
S1130C80323467556D397664434244515341784D4B
S1130C90423458445445314D4455794E6A41774D58
S1130CA04441774D466F5844544D344D4445784E35
S1130CB07A41774D4441774D466F774F54454C0AFE
S1130CC04D416B474131554542684D4356564D7829
S1130CD0447A414E42674E5642416F54426B4674C9
S1130CE059587076626A455A4D42634741315545B9
S1130CF041784D5151573168656D397549464A7689
S1130D000A62335167513045674D54434341534957
S1130D10774451594A4B6F5A496876634E4151455D
S1130D204242514144676745504144434341516FF6
S1130D304367674542414C4A346748484B654E58BF
S1130D406A0A636139486746423066573759313415
S1130D506832394A6C6F3931676859506C30684170
S1130D6045767241497468744F675133704F73719B
S1130D7054514E726F42766F3362534D6748467AD0
S1130D805A4D0A394F36494938632B367A663174DD
S1130D90526E345357697733746535646A6764599E
S1130DA05A366B2F6F49327065564B56755246341E
S1130DB0666E3974426236644E71636D7A55354C91
S1130DC02F71770A4946414762487251674C4B6D0F
S1130DD02B612F7352786D5055446748334B4B4801
S1130DE04F566A34757457702B55686E4D4A627548
S1130DF06C48686562346D6A55634177686D6168F3
S1130E00525761360A564F756A77354835534E7ACC
S1130E102F306567774C58307464484131313467FA
S1130E206B393537455757363763346358386A4A10
S1130E30474B4C68442B726364717371303870385B
S1130E406B4469314C0A39334663586D6E2F3670E2
S1130E505543797A694B726C4134623976374C5711
S1130E60496278636365564F46333447664944356F
S1130E7079484939592F5143422F494944456745D7
S1130E80772B4F79516D0A6A675375624A724971BB
S1130E906730434177454141614E434D4541774475
S1130EA0775944565230544151482F424155774165
S1130EB07745422F7A414F42674E56485138424156
S1130EC066384542414D430A41595977485159447E
S1130ED05652304F42425945464951597A49553044
S1130EE0374C774D6C4A517543466D637837495199
S1130EF054676F494D4130474353714753496233F7
S1130F0044514542437755410A4134494241514392
S1130F1059386A6461515A43684773563255536766
S1130F20674E694D4F7275596F753672346C4B3517
S1130F30497044422F472F776B6A557530794B4778
S1130F405839726278656E44490A5535504D4343A9
S1130F506A6A6D4358504936543533694854664972
S1130F60554A72553661645472434332714A654836
S1130F705A455278686C624931426A6A742F6D73BB
S1130F80763074616451317755730A4E2B6744533C
S1130F903633705961414362765879384D57793701
S1130FA056753333507155584865654536562F5537
S1130FB0713256387669544F39364C5846764B5709
S1130FC06C4A62594B3855393076760A6F2F7566FC
S1130FD0514A56744D565438517450485268386AC0
S1130FE072646B5053484361325856346364467993
S1130FF0517A5231626C645A77674A634A6D417020
S11310007A794D5A466F3649513658550A354D73DB
S1131010492B794D52512B68444B584A696F616C86
S11310206458676A556B4B3634324D345577744285
S113103056386F6232784A4E4464325A68774C6E3E
S11310406F5164655865474144626B70790A7271E7
S1131050585266626F516E6F5A73473471355754E4
S1131060503436385351767647350A2D2D2D2D2D93
S1131070454E442043455254494649434154452D25
S11310802D2D2D2D0A0011241FBECFE5D8E0DEBF83
S1131090CDBF14E0A0E6B0E0E8E4FCE302C00590B4
S11310A00D92AC30B107D9F726E0ACE0B4E001C052
S11310B01D92A937B207E1F70E94961A0C94221EDA
S11310C00C94000082E08EBD89B7846089BF8BE0F8
S11310D09EEF9DBD8CBD789408951F920F920FB61C
S11310E00F9211242F933F934F935F936F937F93AA
S11310F08F939F93AF93BF93EF93FF938BE09EEFF8
S11311009DBD8CBD0E947311FF91EF91BF91AF9172
S11311109F918F917F916F915F914F913F912F910B
S11311200F900FBE0F901F90189510BC8CE089B9DA
S113113088E18AB98EE880BD8AB180688AB98BB1AA
S113114082608BB9789408955D9BFECF8CB9089525
S11311501F920F920FB60F9211242F933F934F9328
S11311605F936F937F938F939F93AF93BF93EF930B
S1131170FF938CB10E94FE0DFF91EF91BF91AF914F
S11311809F918F917F916F915F914F913F912F919B
S11311900F900FBE0F901F901895823058F490E076
S11311A09C01220F331F820F931F880F991F8B5DA1
S11311B09B4F089580E090E008950F931F93CF9381
S11311C08B01C42F0E94CD08009769F0FC01208197
S11311D03181232B51F411830083C283148213823F
S11311E0158281E003C080E001C080E0CF911F91AF
S11311F00F910895CF93C62F0E94CD08FC01892B2F
S1131200D9F0808191810097C9F03381228132170E
S1131210B8F42581DC01A20FB11DCC9385818F5FC9
S1131220858393819F5F9383228182130BC09217DE
S113123058F4158281E009C080E007C080E005C051
S113124080E003C081E001C081E0CF910895CF9395
S1131250DF93EB010E94CD08FC01892B21F18081F1
S11312609181009711F12381222309F12481DC016A
S1131270A20FB11D8C918883A081B1818481A80FB4
S1131280B11D1C9294819F5F9483838181508383D9
S11312902281921302C08111148281110AC0148226
S11312A0158281E007C080E005C080E003C080E0D3
S11312B001C081E0DF91CF9108950E94CD0800978D
S11312C039F0FC0120813181232B21F083810895A1
S11312D080E0089580E008950F931F93CF93DF93E8
S11312E0FC0101900020E9F73197E81BF90BDB01C1
S11312F00D900020E9F71197ED01C61BD70BCE170F
S1131300DF0784F4209771F00E94161BFC01019002
S11313100020E9F73197E81BF90BCE17DF0711F02E
S11313208C0F9D1FDF91CF911F910F9108950F9303
S11313301F93CF93DF93DC0120E030E0C0E0D0E0E6
S113134000E010E00FC086130BC00F5F1F4F04179F
S1131350150721F4B9016C1B7D0B0CC0E901219622
S11313602F5F3F4FFD01E20FF31F80818111EBCF0F
S113137060E070E06115710541F40F5F1F4F0417C1
S1131380150719F4B9016C1B7D0B6115710509F181
S1131390AB014F5F5F4F4F3F510589F080F040E054
S11313A050E019C0FD01EC0FFD1FE20FF31F908107
S11313B0F901EF5CFB4F90832F5F3F4F02C020E0A9
S11313C030E02617370770F3F901EF5CFB4F10820A
S11313D002C040E050E0CA01DF91CF911F910F910C
S11313E00895CF92DF92EF92FF920F931F93FC0127
S11313F001900020E9F73197AF01481B590B6A01AE
S1131400E12CF12CFB0101900020E9F731978F01C9
S1131410061B170B20E030E00C151D052E053F05BB
S113142030F00E94F91A892B21F080E003C080E09B
S113143001C081E01F910F91FF90EF90DF90CF905A
S1131440089580910F04882379F080910E0490E030
S1131450FC01EE0FFF1FEE0FFF1F8E0F9F1FFC01FD
S1131460E45CFA4F83E08483089584FF04C092B35C
S1131470906192BB03C092B39F7E92BB85FF04C070
S113148092B3906292BB03C092B39F7D92BB86FFDE
S113149004C092B3906492BB03C092B39F7B92BB8F
S11314A0882324F482B3806882BB089582B38F7743
S11314B082BB0895CF93C82F807F0E94350A88B3DA
S11314C0877F88BB88B3806188BB87E893E10197F5
S11314D0F1F700C0000088B38F7E88BB8C2F829503
S11314E0807F0E94350A88B3877F88BB88B3806178
S11314F088BB87E893E10197F1F700C0000088B347
S11315008F7E88BBCF91089582E00E945A0A88E2B8
S11315100E945A0A8EE00E945A0A8CE00E945A0ADB
S113152086E00E945A0A81E00E945A0A80E80E94DA
S11315305A0A089541E060E00E94330C089540E0A7
S1131540682F80E090E00E94330C0895CF93DF93DE
S1131550EC0180E80E949F0ACE010E949A0ADF9162
S1131560CF910895CF93DF93EC0180EC0E949F0A02
S1131570CE010E949A0ADF91CF9108950E94B00C87
S11315808FEF81BB87BB0E94840A8EE690E00E94A5
S11315909A0A089580910F04882391F080910E0493
S11315A090E0FC01EE0FFF1FEE0FFF1F8E0F9F1F39
S11315B0FC01E45CFA4F8481833011F40E94800CB6
S11315C080910F04882309F40AC180910E0490E0ED
S11315D0FC01EE0FFF1FEE0FFF1FE80FF91FE45C85
S11315E0FA4F34813130A1F5FC01EE0FFF1FEE0FED
S11315F0FF1FE80FF91FE45CFA4F2381211114C087
S113160020910C04211124C0FC01EE0FFF1FEE0FEA
S1131610FF1FE80FF91FE45CFA4F20812223C1F079
S113162022E020930C0414C020910C04211110C05A
S1131630FC01EE0FFF1FEE0FFF1FE80FF91FE45C24
S1131640FA4F41815281452B19F022E020930C047A
S113165020910C04233009F451C028F4222351F0C2
S1131660223071F00895243009F44FC0253009F474
S11316708AC00895323009F0B2C00E94210A089548
S1131680FC01EE0FFF1FEE0FFF1FE80FF91FE45CD4
S1131690FA4F22E024832381211115C0FC01EE0FAF
S11316A0FF1FEE0FFF1F8E0F9F1FFC01E45CFA4F1C
S11316B08081807F0E94350A88B3877F88BB88B386
S11316C0806188BB17C0FC01EE0FFF1FEE0FFF1FE8
S11316D08E0F9F1FFC01E45CFA4F0180F281E02D24
S11316E08081807F0E94350A88B3886088BB88B374
S11316F0806188BB83E080930C04089588B38F7E57
S113170088BB84E080930C040895FC01EE0FFF1F56
S1131710EE0FFF1FE80FF91FE45CFA4F238121113C
S113172016C0FC01EE0FFF1FEE0FFF1F8E0F9F1F51
S1131730FC01E45CFA4F80818295807F0E94350A27
S113174088B3877F88BB88B3806188BB18C0FC01DD
S1131750EE0FFF1FEE0FFF1F8E0F9F1FFC01E45CB7
S1131760FA4F0180F281E02D80818295807F0E9472
S1131770350A88B3886088BB88B3806188BB85E0FC
S113178080930C04089528B32F7E28BBFC01EE0F30
S1131790FF1FEE0FFF1FE80FF91FE45CFA4F2381D0
S11317A02223D9F0FC01EE0FFF1FEE0FFF1F8E0F57
S11317B09F1FFC01E45CFA4FA181B281CD01019627
S11317C09283818311968C91882321F082E0809307
S11317D00C04089510920C04089510920C040895BA
S11317E0DC0120910E0430E080E036C0F901EE0FF8
S11317F0FF1FEE0FFF1FE20FF31FE45CFA4F93810C
S1131800941328C0F901EE0FFF1FEE0FFF1FE20F24
S1131810F31FE45CFA4F908196131CC0F901EE0F9C
S1131820FF1FEE0FFF1FE20FF31FE45CFA4F01806E
S1131830F281E02DEA17FB0769F4F901EE0FFF1FAF
S1131840EE0FFF1FE20FF31FE45CFA4F9481913017
S113185009F481E02F5F3F4FE0910F04F0E02E1771
S11318603F0724F20895FF920F931F93CF93DF93C2
S1131870C0910F04C431A8F5F42ED62F8C010E9418
S1131880F00B811130C080910D04282F30E0F90154
S1131890EE0FFF1FEE0FFF1FE20FF31FE45CFA4F82
S11318A09481911122C0F901EE0FFF1FEE0FFF1F6B
S11318B02E0F3F1FF901E45CFA4F91E09483D0832B
S11318C012830183F3828F5F80930D049C0F9093A6
S11318D00F04843161F4943160F410920D0481E0BA
S11318E009C080E007C080E005C080E003C081E05B
S11318F001C081E0DF91CF911F910F91FF90089576
S113190020910E04822F90E0FC01EE0FFF1FEE0FDA
S1131910FF1FE80FF91FE45CFA4F34813330F1F410
S11319202F5F20930E0430910F04315030930F0435
S1131930243119F4311110920E04311104C01092A3
S11319400E0410920D04FC01EE0FFF1FEE0FFF1F9B
S11319508E0F9F1FFC01E45CFA4F148280E008950F
S113196080E090E00EC0FC01EE0FFF1FEE0FFF1FA2
S1131970E80FF91FE45CFA4F10821282118214827C
S11319800196843191057CF310920E0410920D049B
S113199010920F04089510921404E2EDF5E08EE61F
S11319A092E09183808312821382148215821782BB
S11319B016821086109212040895EF92FF921F93DC
S11319C0CF93DF931F92CDB7DEB782E3E0EAF5E071
S11319D0DF011D928A95E9F71092130480E00E94BA
S11319E05D098093130410E014C0E12EF12C1982D8
S11319F0BE016F5F7F4F80E00E942709811103C001
S1131A008AE00E94D4188981F701E056FA4F808356
S1131A101F5F80911304181740F30F90DF91CF914B
S1131A201F91FF90EF90089509C00E94A408E2ED71
S1131A30F5E080819181019691838083E091D205C4
S1131A40F091D30580818111F0CF8DE00E94A4082C
S1131A500895BC0180EA95E00E946C090895CF9333
S1131A60DF93D62FC42F0E94290D4C2F50E06D2FE9
S1131A700E949709DF91CF9108950E94CB0C82E3D5
S1131A80E0EAF5E0DF011D928A95E9F7109213046C
S1131A9042E364E476E080E00E94DD0808950F9359
S1131AA01F93CF93DF93FC0180911404811141C0F3
S1131AB08901CB01BA0121E020931404C2EDD5E0E1
S1131AC0F983E88324E630E040E050E00E949B1A6A
S1131AD02A833B834C835D831F830E8318868AE0AD
S1131AE090E0A0E0B0E08093640090936500A09340
S1131AF06600B093670080E69AEEA0E0B0E08093C1
S1131B00600090936100A0936200B0936300109210
S1131B10120482E3E0EAF5E0DF011D928A95E9F719
S1131B20109213040E94140D83E08093140481E046
S1131B3001C080E0DF91CF911F910F9108950F9321
S1131B401F93CF93DF938C0190911404911150C093
S1131B50E901CB01BA0121E02093140424E630E02A
S1131B6040E050E00E949B1AE2EDF5E022833383CB
S1131B7044835583D783C68310868AE090E0A0E02F
S1131B80B0E08093640090936500A0936600B093E6
S1131B90670080E69AEEA0E0B0E080936000909346
S1131BA06100A0936200B09363001092120482E378
S1131BB0E0EAF5E0DF011D928A95E9F7109213043B
S1131BC0C0E0D0E007C0F801EC0FFD1F84910E9433
S1131BD0A4082196C8010E94F01AC817D90798F3DF
S1131BE08DE00E94A40883E08093140481E001C086
S1131BF080E0DF91CF911F910F910895CF93C82F6B
S1131C008D3011F08A3071F5809110048D3089F592
S1131C10CA3091F580911404833031F482E08093CA
S1131C20140490E081E030C08230A1F48091120469
S1131C30811106C084E08093140490E081E024C004
S1131C408150809312046EE780E00E94FA0890E0CD
S1131C5081E01AC0811113C082E08093140490E0E3
S1131C6081E012C080911404823061F090E080E041
S1131C700BC090E081E008C090E081E005C090E0F6
S1131C8080E002C091E080E0913021F46C2F80E08C
S1131C900E94FA08C0931004CF910895CF93DF9364
S1131CA0CDB7DEB72C970FB6F894DEBF0FBECDBF0D
S1131CB0462F6CE20E942F0D892BB1F061E374E092
S1131CC0CE0101960E940F1B8FEFE1E3F4E0DF01E8
S1131CD01D928A95E9F7CE0101960E94D21ABC01A1
S1131CE0990F880B990B03C060E070E0CB012C9630
S1131CF00FB6F894DEBF0FBECDBFDF91CF9108952C
S1131D00CF92DF92EF92FF92CF93C82FE091D80544
S1131D10F091D905309721F08093DA0509959AC09E
S1131D2060EA75E083E790E00E94F109882341F0BE
S1131D30809116048A3009F08DC0109216048AC06E
S1131D4060EA75E08AE790E00E94F1098823C1F017
S1131D504091130420E00BC0822F90E0FC01E05678
S1131D60FA4F3081FC01EC50FA4F30832F5F421759
S1131D7098F783E08093240481E0809323046AC06D
S1131D8060EA75E082E890E00E94F1098823D1F0CE
S1131D9061E082E890E00E944E0E6B017C0162E0FB
S1131DA082E890E00E944E0ECD28CE28CF2809F07C
S1131DB051C0672B682B692B09F04CC085E08093D8
S1131DC0190448C060EA75E081E990E00E94F109D5
S1131DD08823E9F061E081E990E00E944E0E6B01F6
S1131DE07C0162E081E990E00E944E0ECD28CE286D
S1131DF0CF2851F4672B682B692B31F481E0809351
S1131E00110410921B0426C01092110423C060EA2E
S1131E1075E08CE990E00E94F1098823C1F061E04B
S1131E208CE990E00E944E0E6B017C0162E08CE92B
S1131E3090E00E944E0ECD28CE28CF2859F4672B6F
S1131E40682B692B39F489E08093190403C08C2F23
S1131E500E94CA18CF91FF90EF90DF90CF90089521
S1131E60809114048230C9F118F4813091F106C0D4
S1131E70833009F455C0843009F473C00E94CB0C3C
S1131E808091600090916100A0916200B091630024
S1131E900097A105B10569F084569109A109B1091A
S1131EA08093600090936100A0936200B0936300FC
S1131EB05FC080E00E94D41880E69AEEA0E0B0E013
S1131EC08093600090936100A0936200B0936300DC
S1131ED04FC082E00E94800E4BC082E00E94800EC0
S1131EE08091640090916500A0916600B0916700B4
S1131EF00097A105B10561F00197A109B10980938B
S1131F00640090936500A0936600B093670030C0AE
S1131F100E94DD0C84E00E94800E0E94CB0C28C03D
S1131F208091D4059091D505A091D605B091D7059F
S1131F300097A105B10579F00197A109B109809332
S1131F40D4059093D505A093D605B093D70582E028
S1131F500E94800E0DC083E00E94800E0E94CB0C74
S1131F6007C00E94DD0C85E00E94800E0E94CB0C0D
S1131F7080911404882361F080E69AEEA0E0B0E03A
S1131F808093600090936100A0936200B09363001B
S1131F9080911C04811103C00E94D11408950E94F1
S1131FA0DB0F0E9499110E946B130E945B19089524
S1131FB0809315040895CF93DF93C0911604C23023
S1131FC009F482C030F4CC2369F0C13009F440C074
S1131FD03DC1C43009F40AC108F4A3C0C53009F4F2
S1131FE0D2C034C180911504811111C028ED3FE0A5
S1131FF040ED57E060E070E087EA90E00E944F0D0A
S1132000813009F025C180931504D0E03EC18530AC
S1132010C9F480911304823051F46AEA70E080EAD2
S113202095E00E94061B892B21F080E003C080E02C
S113203001C081E0882309F40DC181E08093160476
S1132040D0E023C18350823008F406C1D0E01DC122
S113205080911504811111C028ED3FE040ED57E057
S113206060E070E08DEA90E00E944F0D813009F04D
S1132070F5C080931504D0E008C18530F9F466EB0F
S113208070E080EA95E00E946C0964EC70E00E94C4
S1132090061B892B09F0E4C06EEB70E080EA95E042
S11320A00E946C096AEA70E00E94061B892B09F4FD
S11320B0D9C082E080931604D0E0E7C08350823018
S11320C008F4D2C0D0E0E1C080911504811111C0A0
S11320D028ED3FE040ED57E060E070E08AEC90E0EE
S11320E00E944F0D813009F0C1C080931504D0E0E7
S11320F0CCC0853081F461E081ED90E00E944E0E09
S1132100603271058105910508F0B2C083E08093C7
S11321101604D0E0BAC08350823008F4ABC0D0E0DB
S1132120B4C080911504811111C028ED3FE040ED49
S113213057E060E070E088ED90E00E944F0D813040
S113214009F09AC080931504D0E09FC08530A9F4AB
S113215062E081EE90E00E944E0E613071058105CF
S1132160910531F0653071058105910509F086C04E
S113217085E080931604D0E088C08350823008F450
S11321807FC0D0E082C080911504811110C028ED79
S11321903FE040ED57E060E070E089EE90E00E949F
S11321A04F0D813029F580931504D0E028C0853087
S11321B0C1F466EB70E080EA95E00E946C09FC01D2
S11321C020812223B9F04AE050E0BC0182EF90E084
S11321D00E94F91A892B81F084E080931604D0E0E0
S11321E00EC08350823050F0D0E009C0D0E007C068
S11321F0D0E005C0D1E003C0D1E001C0D1E08091BE
S1132200150481110FC028ED3FE040ED57E060E078
S113221070E08DEF90E00E944F0D8130B1F5809316
S1132220150433C0853071F461E087E091E00E94C9
S11322304E0E613071058105910521F589E0809389
S1132240160423C08350823000F51EC0D0E01DC0A8
S1132250D0E01BC0D1E019C0D1E017C0D0E015C058
S1132260D0E013C0D1E011C0D1E00FC0D0E00DC068
S1132270D1E00BC0D1E009C0D0E007C0D1E005C077
S1132280D1E003C0D1E001C0D1E0D13069F4809144
S11322906800882331F081508093680010921504FF
S11322A003C086E08093150480911504863031F4D0
S11322B08AE08093160481E00E94D4188091160469
S11322C0C81729F0109215048AE080936800DF9102
S11322D0CF9108950E94301A08950E94381A0895E3
S11322E00E94891A08950E946D110E947011089528
S11322F00E946A11809117048823E1F308958FEFF7
S11323008ABB87BB8BBB88BB0BC00E94300F2FE7F7
S113231088E391E0215080409040E1F700C0000044
S113232080911C04882389F30895089580931804E8
S11323300895CF93C091190480916D00863109F0FE
S1132340C5C18C2F90E08830910508F07EC1FC0156
S1132350E65DFF4F0C94BD1A80911804811111C0E1
S113236026E931E140ED57E060E070E080E191E082
S11323700E944F0D813009F06AC18093180480E0F7
S11323808DC1853039F561E08EE191E00E944E0EF9
S1132390672B682B692B29F481E08093190480E072
S11323A07DC180911304853051F46CE271E080EAC0
S11323B095E00E94061B892B21F080E003C080E099
S11323C001C081E0882309F444C181E080931904A9
S11323D080E064C18350823008F43DC180E05EC176
S11323E080911804811111C026E931E140ED57E0D4
S11323F060E070E082E391E00E944F0D813009F0CB
S11324002CC18093180480E049C18530C9F48091BF
S11324101304823051F46AEA70E080EA95E00E9485
S1132420061B892B21F080E003C080E001C081E01D
S1132430882309F414C182E08093190480E02EC13A
S11324408350823008F40DC180E028C180911804C3
S1132450811111C026E931E140ED57E060E070E000
S113246085E591E00E944F0D813009F0FCC0809316
S1132470180480E013C18530C9F4809113048230BC
S113248051F46AEA70E080EA95E00E94061B892B09
S113249021F080E003C080E001C081E0882309F4DA
S11324A0E4C083E08093190480E0F8C08350823054
S11324B008F4DDC080E0F2C080911804811111C0DD
S11324C026E931E140ED57E060E070E088E691E014
S11324D00E944F0D813009F0CCC08093180480E035
S11324E0DDC08530C9F480911304823051F46AEA66
S11324F070E080EA95E00E94061B892B21F080E0C1
S113250003C080E001C081E0882309F4B4C084E002
S11325108093190480E0C2C08350823008F4ADC0B7
S113252080E0BCC08091690081508093690080E0A4
S1132530B5C080911804811111C026E931E140ED44
S113254057E060E070E08CEB91E00E944F0D813029
S113255009F095C08093180480E0A0C08530C9F4C8
S113256080911304813051F464ED71E080EA95E0C8
S11325700E94061B892B21F080E003C080E001C08B
S113258081E0882309F47DC086E08093190480E00B
S113259085C08350823008F476C080E07FC080918B
S11325A01804811111C026E931E140ED57E060E0E3
S11325B070E086ED91E00E944F0D813009F065C016
S11325C08093180480E06AC08530C9F480911304B4
S11325D0823051F46AEA70E080EA95E00E94061BBA
S11325E0892B21F080E003C080E001C081E08823D2
S11325F009F44DC087E08093190480E04FC08350F4
S1132600823008F446C080E049C0809118048111EA
S113261010C026E931E140ED57E060E070E087EE5C
S113262091E00E944F0D8130B1F58093180480E051
S113263035C0853029F488E08093190480E02EC0E9
S11326408350823050F180E029C080E027C080E0D0
S113265025C080E023C081E021C080E01FC081E06C
S11326601DC081E01BC080E019C081E017C081E07B
S113267015C080E013C081E011C081E00FC080E08C
S11326800DC081E00BC081E009C080E007C081E09B
S113269005C081E003C080E001C081E0813069F4BD
S11326A080916A00882331F0815080936A001092EF
S11326B0180403C086E08093180480911904C81795
S11326C029F0109218048AE080936A00CF9108954B
S11326D080931A040895EF92FF921F93CF93DF9390
S11326E0CDB7DEB764970FB6F894DEBF0FBECDBF8B
S11326F010911B0480911904893009F043C11330EF
S113270009F48CC030F4113059F0123009F450C07F
S113271006C1143009F4B3C0153009F4E0C0FFC099
S113272080911A04811123C01F9280E18F9385EF59
S113273091E09F938F93CE0101967C019F938F9399
S11327400E94381B28E633E140ED57E060E070E07A
S1132750C7010E944F0D0F900F900F900F900F9094
S11327600F90813011F480931A0480E0F3C0853017
S1132770C9F480911304813051F464ED71E080EA6E
S113278095E00E94061B892B21F080E003C080E0C5
S113279001C081E0882309F4C4C082E080931B0453
S11327A080E0D8C08350823008F4BDC080E0D2C03D
S11327B080911A04811111C028E633E140ED57E0FD
S11327C060E070E088E092E00E944F0D813009F0F3
S11327D0ACC080931A0480E0BDC08530C9F48091F8
S11327E01304823051F46AEA70E080EA95E00E94B2
S11327F0061B892B21F080E003C080E001C081E04A
S1132800882309F494C083E080931B0480E0A2C071
S11328108350823008F48DC080E09CC080911A04FB
S1132820811111C028E633E140ED57E060E070E02B
S113283089E192E00E944F0D813009F07CC08093C1
S11328401A0480E087C0853009F077C080911304B2
S1132850813051F464ED71E080EA95E00E94061B3A
S1132860892B21F080E003C080E001C081E088234F
S113287009F465C084E080931B0480E06BC0809100
S11328801A04811111C028E633E140ED57E060E0FD
S113289070E08BED95E00E944F0D813009F051C03E
S11328A080931A0480E056C0853009F04CC08091B2
S11328B01304823051F46AEA70E080EA95E00E94E1
S11328C0061B892B21F080E003C080E001C081E079
S11328D08823D9F185E080931B0480E03BC080917C
S11328E01A04811110C028E633E140ED57E060E09E
S11328F070E08EE292E00E944F0D813041F58093AA
S11329001A0480E027C0853029F486E080931B04F4
S113291080E020C083508230E0F080E01BC080E083
S113292019C081E017C081E015C080E013C081E0C8
S113293011C081E00FC080E00DC080E00BC081E0D9
S113294009C080E007C080E005C080E003C080E0EB
S113295001C081E0813069F480916B00882331F0FB
S1132960815080936B0010921A0403C086E0809318
S11329701A0480911904181729F010921A0482E39A
S113298080936B0064960FB6F894DEBF0FBECDBF84
S1132990DF91CF911F91FF90EF90089580931D04D4
S11329A00895CF9380911604893009F0F1C3C09142
S11329B06D008C2F90E08631910508F066C3FC0110
S11329C0EE5CFF4F0C94BD1A80911D04811111C05F
S11329D02EEC34E140ED57E060E070E087EA90E0EF
S11329E00E944F0D813009F052C380931D0480E092
S11329F0ADC38530C9F480911304823051F46AEA7E
S1132A0070E080EA95E00E94061B892B21F080E0AB
S1132A1003C080E001C081E0882309F43AC381E067
S1132A2080936D0080E092C38350823008F433C3F6
S1132A3080E08CC380911D04811111C02EEC34E11F
S1132A4040ED57E060E070E081E492E00E944F0DB9
S1132A50813009F022C380931D0480E077C3853060
S1132A60C9F480911304823051F46AEA70E080EA78
S1132A7095E00E94061B892B21F080E003C080E0D2
S1132A8001C081E0882309F40AC382E080936D00C9
S1132A9080E05CC38350823008F403C380E056C3F3
S1132AA080911D04811111C02EEC34E140ED57E0FA
S1132AB060E070E083E592E00E944F0D813009F000
S1132AC0F2C280931D0480E041C3853029F483E081
S1132AD080936D0080E03AC38350823008F4E5C2ED
S1132AE080E034C380911D04811111C02EEC34E1C7
S1132AF040ED57E060E070E08FE692E00E944F0DF9
S1132B00813009F0D4C280931D0480E01FC3853056
S1132B1029F484E080936D0080E018C383508230F0
S1132B2008F4C7C280E012C380911D04811111C052
S1132B302EEC34E140ED57E060E070E08EE892E086
S1132B400E944F0D813009F0B6C280931D0480E0CD
S1132B50FDC2853021F480936D0080E0F7C283507C
S1132B60823008F4AAC280E0F1C280911D04811170
S1132B7014C02EEC34E140ED57E060E070E08FEAE1
S1132B8092E00E944F0D813009F099C280931D0498
S1132B9087E080936D0080E0D9C2853009F491C24A
S1132BA08350823008F48FC280E0D0C28091130435
S1132BB0813051F464ED71E080EA95E00E94061BD7
S1132BC0892B21F080E003C080E001C081E08823EC
S1132BD019F086E080936D0080911D04811111C06D
S1132BE02EEC34E140ED57E060E070E081EE9BE0D4
S1132BF00E949F0D813009F068C280931D0480E01B
S1132C00A5C28530C9F480911304823051F46AEA74
S1132C1070E080EA95E00E94061B892B21F080E099
S1132C2003C080E001C081E0882309F450C288E039
S1132C3080936D0080E08AC28350823008F449C2D8
S1132C4080E084C280911D04811114C02EEC34E113
S1132C5040ED57E060E070E080ED92E00E944F0D9F
S1132C60813009F038C280931D048AE080936D009E
S1132C7080E06CC2853009F430C28350823008F49D
S1132C802EC280E063C280911304813051F464ED5C
S1132C9071E080EA95E00E94061B892B21F080E018
S1132CA003C080E001C081E0882319F089E08093AB
S1132CB06D0080911D04811111C02EEC34E140EDB2
S1132CC057E060E070E08CE197E00E949F0D813056
S1132CD009F007C280931D0480E038C28530C9F42E
S1132CE080911304823051F46AEA70E080EA95E03E
S1132CF00E94061B892B21F080E003C080E001C004
S1132D0081E0882309F4EFC18BE080936D0080E0BB
S1132D101DC28350823008F4E8C180E017C280915C
S1132D201D04811114C02EEC34E140ED57E060E045
S1132D3070E085EF92E00E944F0D813009F0D7C119
S1132D4080931D048DE080936D0080E0FFC1853089
S1132D5009F4CFC18350823008F4CDC180E0F6C1BC
S1132D6080911304813051F464ED71E080EA95E0C0
S1132D700E94061B892B21F080E003C080E001C083
S1132D8081E0882319F08CE080936D0080911D040C
S1132D90811111C02EEC34E140ED57E060E070E0A9
S1132DA080E990E00E949F0D813009F0A6C18093D4
S1132DB01D0480E0CBC18530C9F4809113048230B6
S1132DC051F46AEA70E080EA95E00E94061B892BC0
S1132DD021F080E003C080E001C081E0882309F491
S1132DE08EC18EE080936D0080E0B0C1835082304C
S1132DF008F487C180E0AAC180911D04811114C028
S1132E002EEC34E140ED57E060E070E089E193E0BE
S1132E100E944F0D813009F076C180931D048FE02C
S1132E2080936D0080E092C18530B1F480911304E9
S1132E30823051F46AEA70E080EA95E00E94061B51
S1132E40892B21F080E003C080E001C081E0882369
S1132E5009F45BC180E07AC18350823008F457C121
S1132E6080E074C181E080931C0480E06FC1809194
S1132E701D04811111C02EEC34E140ED57E060E0F7
S1132E8070E086E293E00E944F0D813009F041C169
S1132E9080931D0480E05AC18530C9F480911304E5
S1132EA0823051F46AEA70E080EA95E00E94061BE1
S1132EB0892B21F080E003C080E001C081E08823F9
S1132EC009F429C182E180936D0080E03FC1835001
S1132ED0823008F422C180E039C180911D0481113F
S1132EE011C02EEC34E140ED57E060E070E082E484
S1132EF093E00E944F0D813009F011C180931D04AD
S1132F0080E024C18530C9F480911304823051F4E7
S1132F106AEA70E080EA95E00E94061B892B21F0A2
S1132F2080E003C080E001C081E0882309F4F9C097
S1132F3083E180936D0080E009C18350823008F4FE
S1132F40F2C080E003C180911D04811111C02EECF8
S1132F5034E140ED57E060E070E08CE593E00E94DE
S1132F604F0D813009F0E1C080931D0480E0EEC074
S1132F708530C9F480911304823051F46AEA70E018
S1132F8080EA95E00E94061B892B21F080E003C0B3
S1132F9080E001C081E0882309F4C9C084E1809302
S1132FA06D0080E0D3C08350823008F4C2C080E05A
S1132FB0CDC080911D04811111C02EEC34E140ED8F
S1132FC057E060E070E08FE793E00E944F0D81309E
S1132FD009F0B1C080931D0480E0B8C08530C9F405
S1132FE080911304823051F46AEA70E080EA95E03B
S1132FF00E94061B892B21F080E003C080E001C001
S113300081E0882309F499C085E180936D0080E014
S11330109DC08350823008F492C080E097C08091B4
S11330201D04811111C02EEC34E140ED57E060E045
S113303070E08AEA93E00E944F0D813009F081C06C
S113304080931D0480E082C08530C9F4809113040C
S1133050823051F46AEA70E080EA95E00E94061B2F
S1133060892B21F080E003C080E001C081E0882347
S113307009F469C086E180936D0080E067C08350E5
S1133080823008F462C080E061C080E05FC080E00C
S11330905DC081E05BC081E059C080E057C081E041
S11330A055C081E053C080E051C081E04FC080E052
S11330B04DC081E04BC080E049C081E047C080E062
S11330C045C080E043C081E041C080E03FC081E072
S11330D03DC081E03BC080E039C080E037C081E082
S11330E035C080E033C081E031C081E02FC080E092
S11330F02DC080E02BC081E029C080E027C081E0A2
S113310025C081E023C080E021C081E01FC081E0B0
S11331101DC080E01BC081E019C081E017C080E0C1
S113312015C081E013C081E011C080E00FC081E0D0
S11331300DC081E00BC080E009C081E007C081E0E0
S113314005C080E003C081E001C081E0813069F402
S113315080916C00882331F0815080936C00109230
S11331601D0403C086E080931D0480911D048630F5
S113317031F487E180936D0081E00E94D41880913E
S11331806D00C81729F010921D048AE080936C002A
S1133190CF91089582E3E0EAF5E0DF011D928A957C
S11331A0E9F7109213040895823021F483ED93E03B
S11331B00E94B20A08951F9291E09F931F928F93E9
S11331C085EE93E09F938F938BED95E09F938F9380
S11331D00E94381B8DB79EB708960FB6F8949EBF11
S11331E00FBE8DBF0895EF92FF920F931F93CF935D
S11331F0DF93EC01DC010D900020E9F71197A81B87
S1133200B90B40E050E046C0FA01EC50FA4F90810F
S1133210888198133DC0FA01EB50FA4F908189815F
S1133220981336C02DC0FE01E20FF31F7081F80120
S1133230EC50FA4F9081791328C08FEFE81AF80AFE
S1133240AE15BF05C1F40F5F1F4F20E030E008C08A
S1133250F901E25EFB4F80832F5F3F4F0F5F1F4FEB
S1133260F801EC50FA4F80818613F2CF8EE194E09E
S11332700E94D21A19C02F5F3F4F0F5F1F4F05C026
S11332808A01E12CF12C20E030E02A173B075CF2A4
S11332904F5F5F4F2091130430E02A1B3B0B421712
S11332A053070CF4B1CF80E0DF91CF911F910F91C0
S11332B0FF90EF900895EF92FF920F931F93CF9397
S11332C0DF93CDB7DEB72A970FB6F894DEBF0FBEF3
S11332D0CDBF809124048330D1F018F4882341F0C9
S11332E08BC0843009F480C0853009F474C084C074
S11332F080911904893009F07FC08FEF0E94DB1898
S113330081E080931B0483E08093240475C0809142
S11333102304813009F070C01092230462E28BE729
S113332090E00E94F318F82E1F928F9385E092E0AC
S11333309F938F938E010A5F1F4F1F930F930E94D9
S1133340381B1A86C8010E94B20A0F900F900F9082
S11333500F900F900F908FEFF81204C085E08093C8
S1133360240408C091E0F91204C084E0809324048A
S113337001C01BBA6DE78FEF93E00E94F318182F7A
S11333801F928F9385E092E09F938F93CE010196D5
S11333907C019F938F930E94381B1D8286EC0E94B0
S11333A09F0AC7010E949A0A0F900F900F900F90E6
S11333B00F900F90113041F485E094E00E94A60A2A
S11333C01BBA8FEF88BB18C088E094E00E94A60A5D
S11333D08FEF8BBB11C080E00E94DB1881E08093EB
S11333E01B048093240408C081E00E94DB1881E060
S11333F080931B04809324042A960FB6F894DEBFAE
S11334000FBECDBFDF91CF911F910F91FF90EF9031
S1133410089542E350E064E476E080E090E00E94A6
S1133420DD0842E350E062E176E081E090E00E9452
S1133430DD0808950E94091A0E943D0D0E94950816
S11334400E947F110E94BE0A0E94620808950E9491
S1133450951108950E94300F08950E94CA0A089594
S11334600E941A1A809178068860809378060895DD
S113347040917606509177069A01ADECBCEC0E941F
S1133480C31A9695879596958795969587959C01E9
S1133490220F331F880F991F880F991F880F991FB8
S11334A0820F931F21E04817590709F020E080910B
S11334B0780620FB81F9809378069A013695279542
S11334C036952795ABE7B4E10E94C31A9695879584
S11334D064E6689F9001699F300D112491E04217C2
S11334E0530709F090E08091780690FB82F980936D
S11334F078064F5F5F4F50937706409376064536C4
S1133500510530F081E090E0909377068093760641
S113351008950E942D1A8091780681FD0E94271A31
S11335208091780682FD0E942A1A08950E947811DB
S113353080E090E00895A1E21A2EAA1BBB1BFD01B6
S11335400DC0AA1FBB1FEE1FFF1FA217B307E4077E
S1133550F50720F0A21BB30BE40BF50B661F771FD6
S1133560881F991F1A9469F76095709580959095B6
S11335709B01AC01BD01CF010895EE0FFF1F059023
S1133580F491E02D0994A29FB001B39FC001A39FC1
S1133590700D811D1124911DB29F700D811D112488
S11335A0911D0895FC0188279927E89421912032E0
S11335B0E9F3293010F02E30C8F32B3241F02D32CC
S11335C039F4689404C00E94301B820F911D21912C
S11335D020532A30C0F31EF4909581959F4F08958F
S11335E0FC0105900020E9F7809590958E0F9F1FB0
S11335F00895FB01DC0104C08D910190801921F430
S113360041505040C8F7881B990B0895FB01DC0119
S11336108D91019080190110D9F3990B0895FB0144
S1133620DC0101900D920020E1F70895FB01519116
S11336305523A9F0BF01DC014D9145174111E1F774
S113364059F4CD010190002049F04D9140154111EC
S1133650C9F3FB014111EFCF81E090E00197089598
S11336607AE0979F902D879F802D910D11240895C6
S1133670AEE0B0E0EEE3FBE10C94F91D0D891E8988
S113368086E08C831A8309838FEF9FE79E838D8363
S1133690AE01475E5F4F6F89788DCE0101960E941F
S11336A05A1BEF81F885E00FF11F10822E96E4E09B
S11336B00C94151EABE0B0E0E0E6FBE10C94EB1DCE
S11336C06C017B018A01FC0117821682838181FFD0
S11336D0CCC1CE0101963C01F6019381F70193FD23
S11336E0859193FF81917F01882309F4BAC18532C2
S11336F039F493FD859193FF81917F01853229F4FB
S1133700B60190E00E94511DE7CF912C212C312C61
S1133710FFE1F315D8F08B3279F038F4803279F088
S11337208332A1F4232D20611DC08D3261F08033DA
S113373069F4232D216016C0832D8260382EE32D79
S1133740E4603E2E2AC0F32DF8601DC037FC2DC066
S113375020ED280F2A3040F08E32B9F436FC81C1B6
S1133760232D2064322E19C036FE06C08AE0989EAE
S1133770200D1124922E11C0EAE02E9E200D11245A
S1133780222EF32DF0623F2E08C08C3621F4832DB7
S11337908068382E02C0883641F4F70193FD859184
S11337A093FF81917F018111B3CF982F9F7D955411
S11337B0933028F40C5F1F4F9FE399830DC0833629
S11337C031F0833771F0833509F059C021C0F80115
S11337D0808189830E5F1F4F88248394912C530129
S11337E013C02801F2E04F0E511CF801A080B180F3
S11337F036FE03C0692D70E002C06FEF7FEFC50194
S11338000E94461D4C018201F32DFF773F2E16C006
S1133810280122E0420E511CF801A080B18036FE3E
S113382003C0692D70E002C06FEF7FEFC5010E94F5
S11338303B1D4C01F32DF0683F2E820133FC1BC06D
S1133840822D90E088169906B0F4B60180E290E0EB
S11338500E94511D2A94F4CFF50137FC859137FE5F
S113386081915F01B60190E00E94511D21102A94BC
S113387021E0821A91088114910471F7E8C084361A
S113388011F0893641F5F80137FE07C06081718176
S1133890828193810C5F1F4F08C060817181072E64
S11338A0000C880B990B0E5F1F4FF32DFF763F2EF4
S11338B097FF09C090958095709561957F4F8F4FC4
S11338C09F4FF0683F2E2AE030E0A3010E948D1D37
S11338D0882E861845C0853731F4232D2F7EB22ECD
S11338E02AE030E025C0932D997FB92E8F36C1F0A0
S11338F018F4883579F0B5C0803719F0883721F08D
S1133900B0C0E92FE061BE2EB4FE0DC0FB2DF46003
S1133910BF2E09C034FE0AC0292F2660B22E06C06D
S113392028E030E005C020E130E002C020E132E0D0
S1133930F801B7FE07C060817181828193810C5FB9
S11339401F4F06C06081718180E090E00E5F1F4FC1
S1133950A3010E948D1D882E8618FB2DFF773F2E14
S113396036FE0DC0232D2E7FA22E891458F434FE6A
S11339700BC032FC09C0832D8E7EA82E05C0B82C46
S1133980A32C03C0B82C01C0B92CA4FE0FC0FE01A7
S1133990E80DF11D8081803321F49A2D997EA92EA2
S11339A009C0A2FE06C0B394B39404C08A2D8678DD
S11339B009F0B394A3FC11C0A0FE06C0B21488F4AD
S11339C0280C922C9B180EC0B21460F4B60180E24D
S11339D090E00E94511DB394F7CFB21418F42B1841
S11339E002C0982C212CA4FE10C0B60180E390E004
S11339F00E94511DA2FE17C0A1FC03C088E790E0FD
S1133A0002C088E590E0B6010CC08A2D867859F092
S1133A10A1FE02C08BE201C080E2A7FC8DE2B601E8
S1133A2090E00E94511D891438F4B60180E390E0BF
S1133A300E94511D9A94F7CF8A94F301E80DF11D69
S1133A408081B60190E00E94511D8110F5CF2220A3
S1133A5009F442CEB60180E290E00E94511D2A94FE
S1133A60F6CFF6018681978102C08FEF9FEF2B96E8
S1133A70E2E10C94071EFC010590615070400110B6
S1133A80D8F7809590958E0F9F1F0895FC01615083
S1133A90704001900110D8F7809590958E0F9F1F6C
S1133AA008950F931F93CF93DF93FB01238121FD8F
S1133AB003C08FEF9FEF2CC022FF16C046815781B1
S1133AC0248135814217530744F4A081B1819D01BB
S1133AD02F5F3F4F318320838C93268137812F5F63
S1133AE03F4F3783268314C08B01EC01FB01008414
S1133AF0F185E02D0995892BE1F6D80116968D9173
S1133B009C911797019617969C938E931697CE01C6
S1133B10DF91CF911F910F910895FA01AA272830C0
S1133B2051F1203181F1E8946F936E7F6E5F7F4F86
S1133B308F4F9F4FAF4FB1E03ED0B4E03CD0670F02
S1133B40781F891F9A1FA11D680F791F8A1F911D55
S1133B50A11D6A0F711D811D911DA11D20D009F4A5
S1133B6068943F912AE0269F11243019305D3193E7
S1133B70DEF6CF010895462F4770405D4193B3E0D0
S1133B800FD0C9F7F6CF462F4F70405D4A3318F077
S1133B90495D31FD4052419302D0A9F7EACFB4E028
S1133BA0A6959795879577956795BA95C9F70097E0
S1133BB06105710508959B01AC010A2E0694579581
S1133BC0479537952795BA95C9F7620F731F841FD8
S1133BD0951FA01D08952F923F924F925F926F926E
S1133BE07F928F929F92AF92BF92CF92DF92EF9289
S1133BF0FF920F931F93CF93DF93CDB7DEB7CA1B0A
S1133C00DB0B0FB6F894DEBF0FBECDBF09942A8834
S1133C10398848885F846E847D848C849B84AA84DC
S1133C20B984C884DF80EE80FD800C811B81AA8169
S1133C30B981CE0FD11D0FB6F894DEBF0FBECDBF34
S10B3C40ED010895F894FFCF93
S1133C4860EA00000A0000000A1E0A320A11496EDE
S1133C586974002B43545A563A007B22636D6422DC
S1133C683A002B434D515454434F4E4E4543543A16
S1133C78002B434D5154545055423A002B434D5157
S1133C8854545355423A004154004F4B0041542B6D
S1133C984350494E3F002B4350494E3A20002B4392
S1133CA850494E3A52454144590041542B435351CB
S1133CB8002B4353513A200041542B435245473F6C
S1133CC8002B435245473A200041542B4350534953
S1133CD83F004C54452C4F6E6C696E650041542B63
S1133CE843474154543F002B43474154543A20001E
S1133CF841542B434D5154545354415254002B4373
S1133D084D51545453544152543A20004552524F41
S1133D18520041542B434D515454414343513D3077
S1133D282C22434F534D49435F446576696365309C
S1133D3831222C310041542B434D51545453534C8C
S1133D484346473D302C300041542B434D51545485
S1133D58434F4E4E4543543D302C227463703A2FE2
S1133D682F61316E776371727031716A6A746D2D67
S1133D786174732E696F742E61702D736F75746816
S1133D882D312E616D617A6F6E6177732E636F6D5D
S1133D983A38383833222C36302C310041542B43EE
S1133DA84D515454535542544F5049433D302C318E
S1133DB8362C31003E0070726A30312F6370303017
S1133DC830312F7375620041542B434D5154545371
S1133DD855423D300041542B434D515454544F5097
S1133DE849433D302C25640070726A30312F63706A
S1133DF8303030312F7075620041542B434D51548B
S1133E08545041594C4F41443D302C3235004154B3
S1133E182B434D5154545055423D302C312C36309F
S1133E280041542B434E4D493D302C302C302C301E
S1133E382C300041542B434345525444454C453D92
S1133E48226361636572742E70656D220D0A0041E8
S1133E58542B434345525444454C453D22636C69B5
S1133E68656E746B65792E70656D220D0A00415478
S1133E782B434345525444454C453D22636C696584
S1133E886E74636572742E70656D222C0D0A004180
S1133E98542B4343455254444F574E3D2263616368
S1133EA86572742E70656D222C313138380D0A0014
S1133EB841542B4343455254444F574E3D22636C5F
S1133EC869656E74636572742E70656D222C313267
S1133ED832300D0A0041542B4343455254444F5742
S1133EE84E3D22636C69656E746B65792E70656DE1
S1133EF8222C313637350D0A0041542B43434552A1
S1133F08544C4953540041542B4353534C43464750
S1133F183D2273736C76657273696F6E222C302C34
S1133F28340041542B4353534C4346473D22617557
S1133F3874686D6F6465222C302C320041542B4315
S1133F4853534C4346473D22636163657274222C84
S1133F58302C226361636572742E70656D22004192
S1133F68542B4353534C4346473D22636C69656E57
S1133F787463657274222C302C22636C69656E74C8
S1133F88636572742E70656D220041542B4353533C
S1133F984C4346473D22636C69656E746B657922B0
S1133FA82C302C22636C69656E746B65792E706590
S1133FB86D220047534D5F4E6F745F436F6E6E659D
S1133FC863746564007B22636D64223A2564226409
S1133FD8617461227B226D31223A25647D7D002241
S10F3FE86D31223A006F6E006F666600B7
S9030000FC
