S0120000434F534D49432D496F542E737265631B
S11300000C9442000C945F000C945F000C945F000D
S11300100C945F000C945F000C945F000C945F00E0
S11300200C945F000C946C000C945F000C945F00C3
S11300300C945F000C94A7000C945F000C945F0078
S11300400C945F000C945F000C945F000C945F00B0
S11300500C945F00E8091E0AFC0A290BFB0B5A0AE0
S1130060900AC60AC40B280C5B0B8E0BF20C360DDF
S1130070820DCE0D040E3A0E6D0E770EAD0EE30E0C
S1130080050F0F0F11241FBECFE5D8E0DEBFCDBF93
S113009014E0A0E6B0E0EEE5FEE202C005900D92A9
S11300A0A830B107D9F727E0A8E0B4E001C01D9259
S11300B0A53AB207E1F70E94D2130C942D170C94C1
S11300C0000082E08EBD89B7846089BF8FEA9CE31B
S11300D09DBD8CBD789408951F920F920FB60F9218
S11300E011242F933F934F935F936F937F938F9339
S11300F09F93AF93BF93EF93FF938FEA9CE39DBDD0
S11301008CBD0E94AD0CFF91EF91BF91AF919F9177
S11301108F917F916F915F914F913F912F910F90AC
S11301200FBE0F901F90189510BC8CE089B988E120
S11301308AB98EE880BD8AB180688AB98BB1826041
S11301408BB9789408955D9BFECF8CB908951F9266
S11301500F920FB60F9211242F933F934F935F93F7
S11301606F937F938F939F93AF93BF93EF93FF937B
S11301708CB10E94A007FF91EF91BF91AF919F9125
S11301808F917F916F915F914F913F912F910F903C
S11301900FBE0F901F9018950F931F93DC011296BA
S11301A0ED91FC911397309729F0CB01BA01A90185
S11301B0980109951F910F910895282F823008F016
S11301C021E06FEF70E080E090E007C0B82FA72F28
S11301D0962F8827BC01CD016F6F2150B9F7089580
S11301E02F923F924F925F926F927F928F929F9243
S11301F0AF92BF92CF92DF92EF92FF920F931F9331
S1130200CF93DF9300D000D01F92CDB7DEB7C82EB6
S11302106983D42E3B832A83882E912C23E1289D45
S1130220C001299D900D11249C0121593F4F1901B2
S1130230D9011A96AD90BC901B97BBE06B9FA00CA4
S1130240B11C1124D501412C512C320120E0E4E0F1
S1130250F0E0FD83EC831FC01596ED91FC91169799
S1130260E20FF11D3081430E511C611C711C8C8105
S11302709D8101963B57333010F431E001C030E0EA
S1130280332331F08C819D8102969D838C8302C03F
S11302909D838C832F5F2D15F8F2D50113968C91D5
S11302A00E94DD007094609450944094411C511C51
S11302B0611C711C4622572268227922F501838130
S11302C090E0019734C09C01220F331F220F331F8B
S11302D0220F331F4FEF50E060E070E0022E04C0A5
S11302E0440F551F661F771F0A94D2F744215521E6
S11302F06621772104C076956795579547952A9589
S1130300D2F72C813D812F5F3F4F4B57433010F480
S113031041E001C040E0442339F02C813D812E5F4F
S11303203F4F3D832C8302C03D832C830197992347
S113033054F683E1889DF001899DF00D1124E15963
S1130340FF4F8185813039F48C819D81880F991FFD
S113035001969D838C8323E1289DC001299D900DE6
S11303601124FC01E159FF4F8185813009F0BFC0A0
S1130370AC81BD81AE15BF0508F09AC087E3F801D2
S113038080838BE38183D5018C91982F92959F7004
S1130390905D92838F70805D83838D2D82958F70A5
S11303A0805D84838D2D8F70805D858340E026E0A1
S11303B030E024C0D5011596ED91FC911697E40F19
S11303C0F11D8081F801E20FF31F95E8980F933037
S11303D030F497E390839CE3918392E001C090E032
S11303E0E90FF11D582F52955F70505D50838F7047
S11303F0805D81839E5F290F311D4F5F4D15D0F2C3
S1130400F501438150E0415051093BC0BA01660FE8
S1130410771F660F771F660F771F8FEF90E0A0E0BE
S1130420B0E0062E04C0880F991FAA1FBB1F0A94B0
S1130430D2F784219521A621B72104C0B695A795AA
S1130440979587956A95D2F7F801E20FF31F65E84F
S1130450680F633030F467E360836CE3618362E0C8
S113046001C060E0E60FF11D782F72957F70705D1A
S113047070838F70805D81836E5F260F311D4150C4
S1130480510955231CF6F801E20FF31F87E380831B
S11304908DE38183C90102962D5F3F4FF801E80F78
S11304A0F91F1082AA81BB812D933C9380E0B5C0D3
S11304B0EC81FD818F0120E030E0980111270027B5
S11304C04C2D50E060E070E0762F652F542F4427C8
S11304D06261C701A0E0B0E0082B192B2A2B3B2B4B
S11304E0F9814F2BC1010E94CC0082E196C02C817E
S11304F03D812E153F0508F072C08BE7D8018C931F
S1130500F501808111968C9311971296DC9290E0FC
S113051023E030E01BC0D5011596ED91FC911697B0
S1130520E90FF11D4081F801E20FF31F85E8840F04
S1130530833020F48CE7808381E001C080E0E80F01
S1130540F11D40838F5F280F311D9F5F9D1518F3A8
S1130550F501438150E04150510932C0BA01660FA0
S1130560771F660F771F660F771F8FEF90E0A0E06D
S1130570B0E0062E04C0880F991FAA1FBB1F0A945F
S1130580D2F784219521A621B72104C0B695A79559
S1130590979587956A95D2F7F801E20FF31F65E8FE
S11305A0680F633020F46CE7608361E001C060E0B1
S11305B0E60FF11D80836F5F260F311D41505109F5
S11305C0552364F6C9010196F801E20FF31F2DE7E4
S11305D02083AA81BB818D939C9380E01EC0EC8113
S11305E0FD818F0120E030E09801112700274C2D78
S11305F050E060E070E0762F652F542F442762614D
S1130600C701A0E0B0E0082B192B2A2B3B2BF98162
S11306104F2BC1010E94CC0082E10F900F900F90EC
S11306200F900F90DF91CF911F910F91FF90EF905A
S1130630DF90CF90BF90AF909F908F907F906F90FE
S11306405F904F903F902F9008953F924F925F920A
S11306506F927F928F929F92AF92BF92CF92DF92CE
S1130660EF92FF920F931F93CF93DF9300D0CDB7F8
S1130670DEB7482E562E322E0E94D903F82E811151
S11306806CC0842C912C23E1289DC001299D900DE0
S113069011249C0121593F4F6901F901A284B384BB
S11306A0FBE05F9EA00CB11C1124F901E680F780E9
S11306B0648075801A821982828984FD18C083E15E
S11306C0889DF001899DF00D1124EF57FF4F808123
S11306D08061808383019E012F5F3F4F432D652DF1
S11306E0842D0E94F000F82E811119C002C081E00F
S11306F04CC083E1889DF001899DF00D1124E159DE
S1130700FF4F0190F081E02DB30189819A81099511
S1130710F82E811104C0F501848180618483FF2057
S1130720D1F083E1889DF001899DF00D1124EF57EC
S1130730FF4F80818F7E8083042D10E020E030E025
S113074098011127002705294F2D50E060E070E043
S1130750C6010E94CC008F2D18C0411016C0F3E1D1
S11307604F9EC0011124042D10E020E030E09801D8
S11307701127002705294F2D50E060E070E08159D2
S11307809F4F0E94CC008F2D00C00F900F90DF91DF
S1130790CF911F910F91FF90EF90DF90CF90BF907A
S11307A0AF909F908F907F906F905F904F903F900D
S11307B00895EF92FF920F931F93CF93DF931F92AD
S11307C0CDB7DEB7298381115AC090E023E1289F79
S11307D0F001299FF00D1124E159FF4F2485621780
S11307E008F04FC023E1289FF001299FF00D112448
S11307F0E159FF4FE284F3842BE0629FE00CF11C8B
S11308001124D70111962C913981231779F02111E4
S11308103AC03323D1F123E1289FF001299FF00D41
S11308201124E159FF4F8085831788F18A01D7018C
S11308301996ED91FC911A97309731F0BE016F5FD4
S11308407F4FCA01099501C080E0882381F020C050
S1130850D7011596ED91FC911697E20FF31FD8017D
S1130860A20FB31F9C9190832F5F3F4F02C020E0E3
S113087030E0498150E02417350754F309C081E181
S113088007C080E105C08EE003C08EE001C08EE0A9
S11308900F90DF91CF911F910F91FF90EF900895EA
S11308A081110BC090E09C01220F331F820F931F14
S11308B0880F991F855E9B4F089580E090E008950E
S11308C00F931F93CF938B01C42F0E945004009762
S11308D069F0FC0120813181232B51F411830083C1
S11308E0C28314821382158281E003C080E001C0B8
S11308F080E0CF911F910F910895CF93C62F0E944E
S11309005004FC01892BD9F0808191810097C9F0B2
S1130910338122813217B8F42581DC01A20FB11D85
S1130920CC9385818F5F858393819F5F938322819D
S113093082130BC0921758F4158281E009C080E03D
S113094007C080E005C080E003C081E001C081E011
S1130950CF910895CF93DF93EB010E945004FC01E3
S1130960892B21F180819181009711F12381222328
S113097009F12481DC01A20FB11D8C918883A0812F
S1130980B1818481A80FB11D1C9294819F5F9483CF
S11309908381815083832281921302C08111148246
S11309A081110AC01482158281E007C080E005C06D
S11309B080E003C080E001C081E0DF91CF91089521
S11309C00E945004009739F0FC0120813181232BCF
S11309D021F08381089580E0089580E008950F93C5
S11309E01F93CF93DF93FC0101900020E9F7319727
S11309F0E81BF90BDB010D900020E9F71197ED01DD
S1130A00C61BD70BCE17DF0784F4209771F00E9422
S1130A102114FC0101900020E9F73197E81BF90B40
S1130A20CE17DF0711F08C0F9D1FDF91CF911F911F
S1130A300F9108950F931F93CF93DF93DC0120E070
S1130A4030E0C0E0D0E000E010E00FC086130BC03F
S1130A500F5F1F4F0417150721F4B9016C1B7D0BA1
S1130A600CC0E90121962F5F3F4FFD01E20FF31FF8
S1130A7080818111EBCF60E070E06115710541F474
S1130A800F5F1F4F0417150719F4B9016C1B7D0B79
S1130A906115710509F1AB014F5F5F4F4F3F510580
S1130AA089F080F040E050E019C0FD01EC0FFD1F1B
S1130AB0E20FF31F9081F901EF5DFB4F90832F5FED
S1130AC03F4F02C020E030E02617370770F3F901EA
S1130AD0EF5DFB4F108202C040E050E0CA01DF919D
S1130AE0CF911F910F910895CF92DF92EF92FF92D1
S1130AF00F931F93FC0101900020E9F73197AF0198
S1130B00481B590B6A01E12CF12CFB0101900020D8
S1130B10E9F731978F01061B170B20E030E00C1525
S1130B201D052E053F0530F00E94FB13892B21F093
S1130B3080E003C080E001C081E01F910F91FF902D
S1130B40EF90DF90CF90089584FF04C092B390613A
S1130B5092BB03C092B39F7E92BB85FF04C092B345
S1130B60906292BB03C092B39F7D92BB86FF04C088
S1130B7092B3906492BB03C092B39F7B92BB8823D1
S1130B8024F482B3806882BB089582B38F7782BBDA
S1130B90089580E00E94A40588B3877F88BB88B34A
S1130BA0806188BB8FEC97E00197F1F700C00000EB
S1130BB088B38F7E88BB80E20E94A40588B3877FB8
S1130BC088BB88B3806188BB8FEC97E00197F1F70D
S1130BD000C0000088B38F7E88BB089580E00E9427
S1130BE0A40588B3877F88BB88B3806188BB8FECFA
S1130BF097E00197F1F700C0000088B38F7E88BBAF
S1130C0080E10E94A40588B3877F88BB88B3806194
S1130C1088BB8FEC97E00197F1F700C0000088B320
S1130C208F7E88BB0895CF93C82F807F0E94A40530
S1130C3088B3877F88BB88B3806188BB82E48A9548
S1130C40F1F700C088B38F7E88BB8C2F8295807F9C
S1130C500E94A40588B3877F88BB88B3806188BB62
S1130C6082E48A95F1F700C088B38F7E88BBCF9168
S1130C700895CF93C82F807F0E94A40588B388600D
S1130C8088BB88B3806188BB82E48A95F1F700C091
S1130C9088B38F7E88BB8C2F8295807F0E94A405A9
S1130CA088B3886088BB88B3806188BB82E48A95F6
S1130CB0F1F700C088B38F7E88BBCF910895CF939E
S1130CC0DF93C82FD62F813021F48FE7860F0E943F
S1130CD01306C23021F48FEB8D0F0E941306C3302C
S1130CE021F483E98D0F0E941306C43021F483EDAF
S1130CF08D0F0E941306DF91CF910895CF93DF9358
S1130D00EC0103C021960E94390688818111FACF33
S1130D10DF91CF9108958FEF87BB18BA81BB12BAC8
S1130D200E94C90588E20E9413068EE00E94130601
S1130D308CE00E94130686E00E9413060E94EE05D2
S1130D4080E80E94130661E081E00E945F0686E964
S1130D5090E00E947E060895CF93DF93EC0180E833
S1130D600E941306CE010E947E06DF91CF91089562
S1130D70CF93DF93EC0180EC0E941306CE010E9416
S1130D807E06DF91CF91089510920C04E4EFF5E014
S1130D9081EA91E091838083128213821482158206
S1130DA017821682108610920A040895EF92FF9219
S1130DB01F93CF93DF931F92CDB7DEB788ECECE29D
S1130DC0F5E0DF011D928A95E9F710920B0480E0AB
S1130DD00E94500460EA70E0FC01808191810E94CD
S1130DE021140E94B80680E00E94E00480930B0462
S1130DF010E013C0E12EF12C1982BE016F5F7F4F0A
S1130E0080E00E94AA04811102C00E94C00C898162
S1130E10F701E45DFA4F80831F5F80910B0418177C
S1130E2048F36CE275E085EA90E00E94740588233B
S1130E3039F088B3809588BB86E395E00E94AC06C0
S1130E400F90DF91CF911F91FF90EF90089509C00B
S1130E500E94A300E4EFF5E08081918101969183E3
S1130E608083E091F405F091F50580818111F0CF44
S1130E708DE00E94A3000895BC018CE295E00E94DD
S1130E80EF040895CF93DF93D62FC42F0E943C071D
S1130E904C2F50E06D2F0E941A05DF91CF910895D9
S1130EA00E94C40688ECECE2F5E0DF011D928A950D
S1130EB0E9F710920B0448EC6BE876E080E00E94BE
S1130EC060040895E0910C04E11138C0E1E0E0937E
S1130ED00C04E4EFF5E091838083428353836483BD
S1130EE075833783268310868AE090E0A0E0B0E023
S1130EF08093640090936500A0936600B0936700AC
S1130F0080E69AEEA0E0B0E08093600090936100E8
S1130F10A0936200B093630010920A0488ECECE2A0
S1130F20F5E0DF011D928A95E9F710920B040E9407
S1130F30270783E080930C0481E0089580E00895FE
S1130F40CF93C82F8D3011F08A3071F58091080449
S1130F508D3089F5CA3091F580910C04833031F4D9
S1130F6082E080930C0490E081E030C08230A1F4F0
S1130F7080910A04811106C084E080930C0490E0FF
S1130F8081E024C0815080930A046EE780E00E94CF
S1130F907D0490E081E01AC0811113C082E0809347
S1130FA00C0490E081E012C080910C04823061F066
S1130FB090E080E00BC090E081E008C090E081E028
S1130FC005C090E080E002C091E080E0913021F41F
S1130FD06C2F80E00E947D04C0930804CF91089593
S1130FE0CF93DF93CDB7DEB72C970FB6F894DEBF5F
S1130FF00FBECDBF462F6CE20E944207892BB1F091
S113100061E274E0CE0101960E941A148FEFE1E2CE
S1131010F4E0DF011D928A95E9F7CE0101960E9462
S1131020DD13BC01990F880B990B03C060E070E0DD
S1131030CB012C960FB6F894DEBF0FBECDBFDF9167
S1131040CF9108958F929F92AF92BF92CF92DF92E9
S1131050EF92FF92CF93C82FE091FA05F091FB0530
S1131060309721F08093FC05099593C06CE275E0FC
S113107084EB90E00E947405882341F080910E0473
S11310808D3009F086C010920E0483C06CE275E0C6
S113109085EA90E00E94740581117BC06CE275E0E2
S11310A08BEB90E00E9474058823D1F061E08BEB18
S11310B090E00E94F0076B017C0162E08BEB90E012
S11310C00E94F007CD28CE28CF2809F062C0672BF4
S11310D0682B692B09F05DC088E080936B0059C0D0
S11310E06CE275E08AEC90E00E947405882319F0A4
S11310F00E94C00C4EC06CE275E08DED90E00E9441
S113110074058823E9F061E08DED90E00E94F0071A
S11311106B017C0162E08DED90E00E94F007CD2828
S1131120CE28CF2851F4672B682B692B31F481E04A
S113113080930904109212042CC01092090429C04F
S11311406CE275E088EE90E00E9474058823F1F06B
S113115061E088EE90E00E94F0074B015C0162E0E0
S113116088EE90E00E94F0076B017C0183EF90E031
S11311700E94B80689288A288B2859F4CD28CE28BD
S1131180CF2839F48DE080936B0003C08C2F0E942C
S11311909B12CF91FF90EF90DF90CF90BF90AF90D4
S11311A09F908F90089580910C048230B9F118F4C7
S11311B0813081F106C0833009F453C0843009F4CE
S11311C071C00E94C4068091600090916100A0915A
S11311D06200B09163000097A105B10561F0019729
S11311E0A109B1098093600090936100A09362000B
S11311F0B09363005EC00E94C00C80E69AEEA0E04B
S1131200B0E08093600090936100A0936200B0937B
S113121063004FC082E00E9422084BC082E00E941B
S113122022088091640090916500A0916600B091BD
S113123067000097A105B10561F00197A109B10903
S11312408093640090936500A0936600B093670058
S113125030C00E94D60684E00E9422080E94C40680
S113126028C08091F6059091F705A091F805B091FA
S1131270F9050097A105B10579F00197A109B10914
S11312808093F6059093F705A093F805B093F905BC
S113129082E00E9422080DC083E00E9422080E947E
S11312A0C40607C00E94D60685E00E9422080E9458
S11312B0C40680910C04882361F080E69AEEA0E0D5
S11312C0B0E08093600090936100A0936200B093BB
S11312D063000E94DA090E9436110E94CD0C0E941C
S11312E0A50F0E943113089580930D0408950F9360
S11312F01F93CF93DF93CDB7DEB76E970FB6F894F5
S1131300DEBF0FBECDBFDC01159690E009C08D9104
S1131310E1E0F0E0EC0FFD1FE90FF11D80839F5F1A
S11313209430A8F3CE0101960E94DD13092E000C1F
S1131330AA0BBB0B8C3C2FE09207A105B10591F0E1
S11313408A3D2FE09207A105B10579F0813D2FE098
S11313509207A105B10561F0803D9F40A105B1054B
S113136061F409C007EF10E008C002E011E005C015
S11313700BE011E002C00CE111E01F930F9386E231
S113138091E09F938F938DEF95E09F938F930E94AD
S113139043140F900F900F900F900F900F906E9634
S11313A00FB6F894DEBF0FBECDBFDF91CF911F9172
S11313B00F910895CF93C0910E048C2F90E08C3040
S11313C0910508F045C2FC01E65DFF4F0C94D7136C
S11313D080910D04811111C024E739E040ED57E0FC
S11313E060E070E08BE391E00E946207813009F0D5
S11313F031C280930D0480E072C28530C9F48091BB
S11314000B04823051F46EE371E08CE295E00E94AB
S11314101114892B21F080E003C080E001C081E039
S1131420882309F419C281E080930E0480E057C236
S11314308350823008F412C280E051C280910D04BE
S1131440811111C024E739E040ED57E060E070E01D
S113145081E491E00E946207813009F001C2809327
S11314600D0480E03CC28530F9F46AE471E08CE25A
S113147095E00E94EF0468E571E00E941114892B45
S113148009F0F0C162E571E08CE295E00E94EF049E
S11314906EE371E00E941114892B09F4E5C185E023
S11314A080930E0480E01BC28350823008F4DEC1B6
S11314B080E015C280910D04811111C024E739E048
S11314C040ED57E060E070E08EE591E00E94620735
S11314D0813009F0CDC180930D0480E000C28530D5
S11314E0C9F480910B04823051F46EE371E08CE214
S11314F095E00E941114892B21F080E003C080E064
S113150001C081E0882309F4B5C186E080930E040C
S113151080E0E5C18350823008F4AEC180E0DFC1D1
S113152080910D04811111C024E739E040ED57E0AA
S113153060E070E087E691E00E946207813009F084
S11315409DC180930D0480E0CAC18530C9F48091A7
S11315500B04823051F46EE371E08CE295E00E945A
S11315601114892B21F080E003C080E001C081E0E8
S1131570882309F485C187E080930E0480E0AFC11D
S11315808350823008F47EC180E0A9C180910D04AB
S1131590811111C024E739E040ED57E060E070E0CC
S11315A087E791E00E946207813009F06DC1809362
S11315B00D0480E094C18530C9F480910B0482301D
S11315C051F46EE371E08CE295E00E941114892BD2
S11315D021F080E003C080E001C081E0882309F4A9
S11315E055C182E080930E0480E079C1835082303B
S11315F008F44EC180E073C180910D04811111C0C3
S113160024E739E040ED57E060E070E083E891E0E2
S11316100E946207813009F03DC180930D0480E08F
S11316205EC1853081F461E08AE891E00E94F007B0
S1131630603271058105910508F02EC183E0809325
S11316400E0480E04CC18350823008F427C180E04E
S113165046C180910D04811111C024E739E040EDA9
S113166057E060E070E081E991E00E946207813018
S113167009F016C180930D0480E031C18530A9F4CE
S113168062E08AE991E00E94F0076130710581050A
S1131690910531F0653071058105910509F002C1AC
S11316A08AE080930E0480E01AC18350823008F4EB
S11316B0FBC080E014C180910D04811111C024E7A6
S11316C039E040ED57E060E070E082EA91E00E948A
S11316D06207813009F0EAC080930D0480E0FFC006
S11316E08530B1F46CE275E08BEA91E00E947405F8
S11316F0882309F4DDC06BEA71E08CE295E00E9476
S1131700EF040E9477098BE080930E0480E0E7C029
S11317108350823008F4CEC080E0E1C080910D0493
S1131720811111C024E739E040ED57E060E070E03A
S11317308DEF95E00E946207813009F0BDC080936F
S11317400D0480E0CCC08530C9F480910B04823054
S113175051F46EE371E08CE295E00E941114892B40
S113176021F080E003C080E001C081E0882309F417
S1131770A5C088E080930E0480E0B1C0835082301D
S113178008F49EC080E0ABC080910D04811111C0AB
S113179024E739E040ED57E060E070E083EB91E04E
S11317A00E946207813009F08DC080930D0480E0AF
S11317B096C08530D1F46AE471E08CE295E00E9431
S11317C0EF04FC012081222309F47EC04AE050E0AA
S11317D0BC018CEB91E00E94FB13892B09F476C0C9
S11317E084E080930E0480E07AC08350823008F451
S11317F06FC080E074C080910D04811111C024E792
S113180039E040ED57E060E070E087EC91E00E9441
S11318106207813009F05EC080930D0480E05FC0F0
S1131820853081F461E081ED91E00E94F007613040
S113183071058105910509F04FC08CE080930E0479
S113184080E04DC08350823008F448C080E047C037
S113185080E045C080E043C081E041C081E03FC0FA
S113186080E03DC080E03BC081E039C081E037C00A
S113187080E035C081E033C081E031C080E02FC01A
S113188081E02DC081E02BC080E029C081E027C029
S113189081E025C080E023C081E021C081E01FC039
S11318A080E01DC081E01BC081E019C080E017C04A
S11318B081E015C081E013C080E011C081E00FC059
S11318C081E00DC080E00BC081E009C081E007C069
S11318D081E005C080E003C081E001C081E0813087
S11318E069F480916800882331F081508093680006
S11318F010920D0403C086E080930D0480910D04C2
S1131900863029F48DE080930E040E94C00C8091EF
S11319100E04C81729F010920D048AE08093680021
S1131920CF9108950E94C61308958091A40780FD65
S113193007C00E94CE138091A40781608093A407FE
S113194008958091A40780FF07C00E94CF1380915F
S1131950A4078E7F8093A40708950E94950C089590
S11319600E94920C02C00E94A10C80910F04882353
S1131970D1F308958FEF8ABB87BB1BBA88BB089548
S113198010920E0481E080936E0080936B0010929D
S113199012040895809310040895CF93DF93C091A7
S11319A06B0080916900811107C086E080936B0011
S11319B088E58093690003C0815080936900809119
S11319C06E00863009F0BBC2E0916B008E2F90E070
S11319D0FC013197EC30F10508F056C2EA5CFF4F88
S11319E00C94D71380911004811111C02AEC3CE0AF
S11319F040ED57E060E070E08AED91E00E946207FC
S1131A00813009F043C28093100480E07AC28530AB
S1131A1039F561E088EE91E00E94F007672B682BAE
S1131A20692B29F482E080936B0080E06AC2809184
S1131A300B04853051F466EF71E08CE295E00E946E
S1131A401114892B21F080E003C080E001C081E003
S1131A50882309F41DC282E080936B0080E051C2A8
S1131A608350823008F416C280E04BC28091100487
S1131A70811111C02AEC3CE040ED57E060E070E0D9
S1131A808CEF91E00E946207813009F005C28093D7
S1131A90100480E036C2853079F5D0910B04D23041
S1131AA051F46EE371E08CE295E00E941114892BED
S1131AB021F080E003C080E001C081E0882329F0A8
S1131AC084E080936B0080E01CC2D53051F466EF53
S1131AD071E08CE295E00E941114892B21F080E0E2
S1131AE003C080E001C081E0882309F4D7C183E00A
S1131AF080936B0080E005C28350823008F4D0C12B
S1131B0080E0FFC180911004811111C02AEC3CE0F7
S1131B1040ED57E060E070E08FE192E00E946207E0
S1131B20813009F0BFC18093100480E0EAC18530A0
S1131B3079F5D0910B04D23051F46EE371E08CE26C
S1131B4095E00E941114892B21F080E003C080E00D
S1131B5001C081E0882329F082E080936B0080E05B
S1131B60D0C1D53051F466EF71E08CE295E00E946B
S1131B701114892B21F080E003C080E001C081E0D2
S1131B80882309F491C18CE080936B0080E0B9C193
S1131B908350823008F48AC180E0B3C1809110047C
S1131BA0811111C02AEC3CE040ED57E060E070E0A8
S1131BB08DE292E00E946207813009F079C180933E
S1131BC0100480E09EC18530C9F480910B048230FA
S1131BD051F46EE371E08CE295E00E941114892BBC
S1131BE021F080E003C080E001C081E0882309F493
S1131BF061C185E080936B0080E083C183508230B3
S1131C0008F45AC180E07DC180911004811111C093
S1131C102AEC3CE040ED57E060E070E080E492E0C4
S1131C200E946207813009F049C18093100480E06A
S1131C3068C18530C9F480910B04823051F46EE39D
S1131C4071E08CE295E00E941114892B21F080E070
S1131C5003C080E001C081E0882309F431C187E03A
S1131C6080936B0080E04DC18350823008F42AC118
S1131C7080E047C180911004811111C02AEC3CE03E
S1131C8040ED57E060E070E083E992E00E94620773
S1131C90813009F019C18093100480E032C185308D
S1131CA0B1F46CE275E084EA92E00E947405882342
S1131CB029F08DE080936B0080E023C181E0809364
S1131CC06E0080936B001092120480E01AC183505E
S1131CD0823008F4FBC080E014C180916A008A302D
S1131CE009F0F6C08EE180936A0081E00AC1809118
S1131CF01004811111C02AEC3CE040ED57E060E093
S1131D0070E08BEB92E00E946207813009F0E2C040
S1131D108093100480E0F5C08530C9F480910B04F1
S1131D20813051F463ED72E08CE295E00E9411146D
S1131D30892B21F080E003C080E001C081E088238A
S1131D4009F4CAC089E080936B0080E0DAC0835054
S1131D50823008F4C3C080E0D4C0809110048111A3
S1131D6011C02AEC3CE040ED57E060E070E085ED06
S1131D7092E00E946207813009F0B2C0809310049F
S1131D8080E0BFC08530C9F480910B04823051F4E7
S1131D906EE371E08CE295E00E941114892B21F02E
S1131DA080E003C080E001C081E0882309F49AC088
S1131DB08AE080936B0080E0A4C08350823008F4F2
S1131DC093C080E09EC080911004811111C02AEC60
S1131DD03CE040ED57E060E070E086EE92E00E9467
S1131DE06207813009F082C08093100480E089C0CA
S1131DF0853029F48BE080936B0080E082C08350AF
S1131E00823008F475C080E07CC080916A008A301A
S1131E1009F070C082E380936A0081E072C080910F
S1131E201004811111C02AEC3CE040ED57E060E061
S1131E3070E084EF92E00E946207813009F05CC098
S1131E408093100480E05DC08530C9F480910B0458
S1131E50823051F46EE371E08CE295E00E9411143B
S1131E60892B21F080E003C080E001C081E0882359
S1131E7009F444C081E080936B0080E042C0835049
S1131E808230F0F180E03DC080E03BC080E039C0AA
S1131E9080E037C081E035C080E033C081E031C0EC
S1131EA081E02FC080E02DC081E02BC081E029C0FB
S1131EB080E027C081E025C081E023C080E021C00C
S1131EC081E01FC081E01DC080E01BC081E019C01B
S1131ED081E017C080E015C081E013C081E011C02B
S1131EE080E00FC081E00DC081E00BC080E009C03C
S1131EF081E007C081E005C080E003C081E001C04B
S1131F0081E0813069F480916A00882331F0815046
S1131F1080936A001092100403C086E0809310043A
S1131F2080911004863011F40E94C00C80916B00E3
S1131F30C81729F0109210048AE080936A00DF9198
S1131F40CF910895809311040895EF92FF921F9307
S1131F50CF93DF93CDB7DEB764970FB6F894DEBFA7
S1131F600FBECDBF1091120480916B008D3009F02B
S1131F706EC1133009F48EC030F4113069F01230A0
S1131F8009F452C02BC1153009F4FFC008F4CCC0C9
S1131F90163009F41AC122C180911104811123C0A1
S1131FA01F9280E18F9381E093E09F938F93CE0102
S1131FB001967C019F938F930E94431422EA3FE091
S1131FC040ED57E060E070E0C7010E9462070F90A7
S1131FD00F900F900F900F900F90813011F4809319
S1131FE0110480E016C18530C9F480910B0481305E
S1131FF051F463ED72E08CE295E00E941114892B98
S113200021F080E003C080E001C081E0882309F46E
S1132010E7C082E08093120480E0FBC083508230EA
S113202008F4E0C080E0F5C080911104811111C072
S113203022EA3FE040ED57E060E070E084E193E0A5
S11320400E946207813009F0CFC08093110480E0C0
S1132050E0C08530C9F480910B04823051F46EE302
S113206071E08CE295E00E941114892B21F080E04C
S113207003C080E001C081E0882309F4B7C083E095
S11320808093120480E0C5C08350823008F4B0C04D
S113209080E0BFC08091110481112AC0E5E2F6E01E
S11320A001900020E9F73197E552F640FF93EF9352
S11320B085E293E09F938F93CE0101967C019F93D9
S11320C08F930E94431422EA3FE040ED57E060E022
S11320D070E0C7010E9462070F900F900F900F905D
S11320E00F900F90813011F48093110480E091C01F
S11320F0853009F07FC080910B04813051F463ED89
S113210072E08CE295E00E941114892B21F080E0AA
S113211003C080E001C081E0882309F46DC084E03D
S11321208093120480E075C080911104811111C064
S113213022EA3FE040ED57E060E070E085E296E09F
S11321400E946207813009F059C08093110480E035
S113215060C0853009F054C080910B04823051F482
S11321606EE371E08CE295E00E941114892B21F05A
S113217080E003C080E001C081E0882309F442C00C
S113218085E08093120480E044C0809111048111A1
S113219010C022EA3FE040ED57E060E070E08AE3DF
S11321A093E00E946207813079F58093110480E006
S11321B030C0853029F486E08093120480E029C081
S11321C08350823018F180E024C080916C008A3002
S11321D0F9F482E380936C0081E01BC080E019C0B5
S11321E081E017C081E015C080E013C081E011C018
S11321F081E00FC080E00DC081E00BC080E009C029
S113220080E007C080E005C080E003C081E001C039
S113221081E0813069F480916C00882331F0815031
S113222080936C001092110403C086E08093110423
S113223080911104863011F40E94C00C80916B00CF
S1132240181729F0109211048AE080936C006496A8
S11322500FB6F894DEBF0FBECDBFDF91CF911F91B3
S1132260FF90EF900895809313040895CF93809185
S11322700E048C3009F05DC1C0916E00C33009F4C6
S113228079C028F4C13051F0C230F1F112C1C43028
S113229009F4A6C0C53009F4D9C00BC18091130458
S11322A0811111C023E331E140ED57E060E070E0BB
S11322B08DE493E00E946207813009F0FCC08093B2
S11322C0130480E015C18530C9F480910B04823079
S11322D051F46EE371E08CE295E00E941114892BB5
S11322E021F080E003C080E001C081E0882309F48C
S11322F0E4C082E080936E0080E0FAC083508230B4
S113230008F4DDC080E0F4C080911304811111C091
S113231023E331E140ED57E060E070E089E693E0CB
S11323200E946207813009F0CCC08093130480E0DE
S1132330DFC08530C9F480910B04823051F46EE320
S113234071E08CE295E00E941114892B21F080E069
S113235003C080E001C081E0882309F4B4C083E0B5
S113236080936E0080E0C4C08350823008F4ADC016
S113237080E0BEC080911304811111C023E331E1D8
S113238040ED57E060E070E083E893E00E9462076C
S1132390813009F09CC08093130480E0A9C085308B
S11323A0C9F480910B04823051F46EE371E08CE245
S11323B095E00E941114892B21F080E003C080E095
S11323C001C081E0882309F484C084E080936E0016
S11323D080E08EC08350823008F47DC080E088C0E5
S11323E080911304811111C023E331E140ED57E0E2
S11323F060E070E086EA93E00E946207813009F0B1
S11324006CC08093130480E073C08530C9F480915C
S11324100B04823051F46EE371E08CE295E00E948B
S11324201114892B21F080E003C080E001C081E019
S1132430882309F454C085E080936E0080E058C07E
S11324408350823008F44DC080E052C08091130460
S1132450811110C023E331E140ED57E060E070E00A
S113246081ED93E00E9462078130E9F580931304C3
S113247080E03EC08530C1F480910B04823051F479
S11324806EE371E08CE295E00E941114892B21F037
S113249080E003C080E001C081E0882331F186E060
S11324A080936E0080E024C08350823000F180E08D
S11324B01FC080E01DC080E01BC081E019C081E026
S11324C017C080E015C081E013C081E011C080E036
S11324D00FC081E00DC081E00BC080E009C081E045
S11324E007C081E005C080E003C081E001C081E055
S11324F0813069F480916D00882331F0815080939C
S11325006D001092130403C086E08093130480913D
S11325101304863029F487E080936E000E94C00C77
S113252080916E00C81729F0109213048AE08093FA
S11325306D00CF91089588ECECE2F5E0DF011D9287
S11325408A95E9F710920B04089508950895AC0153
S113255085E296E00E94081480E008958093650661
S1132560E6E6F6E080818160808388E0E5E6F6E0D7
S1132570A3E5B7E001900D928A95E1F728E030E0F9
S113258043E557E060E070E080E090E00E942503BE
S11325900895EF92FF920F931F93CF93DF93EC0173
S11325A0DC010D900020E9F71197A81BB90B40E05E
S11325B050E046C0FA01E359F94F9081888198139D
S11325C03DC0FA01E259F94F90818981981336C0D0
S11325D02DC0FE01E20FF31F7081F801E359F94F9A
S11325E09081791328C08FEFE81AF80AAE15BF0559
S11325F0C1F40F5F1F4F20E030E008C0F901EC5E2A
S1132600FB4F80832F5F3F4F0F5F1F4FF801E3594C
S1132610F94F80818613F2CF84E194E00E94DD13A8
S113262019C02F5F3F4F0F5F1F4F05C08A01E12C78
S1132630F12C20E030E02A173B075CF24F5F5F4F3C
S113264020910B0430E02A1B3B0B421753070CF478
S1132650B1CF80E0DF91CF911F910F91FF90EF9068
S113266008951F93CF93DF93CDB7DEB72A970FB6A4
S1132670F894DEBF0FBECDBF80911A048330D1F031
S113268018F4882341F06AC0843009F45FC08530AF
S113269009F453C063C080916B008D3009F05EC0B3
S11326A08FEF0E94AE1281E08093120483E0809346
S11326B01A0454C080911904813009F04FC010925B
S11326C0190462E28AEF93E00E94C912182F1F9244
S11326D08F9381E193E09F938F93CE0106969F930E
S11326E08F930E9443141A860F900F900F900F90AF
S11326F00F900F901F3F21F485E080931A0405C0CA
S1132700113019F484E080931A046DE781E094E0B9
S11327100E94C9121F928F9381E193E09F938F933C
S1132720CE0101969F938F930E9443140F900F90B4
S11327300F900F900F900F9011C080E00E94AE1286
S113274081E08093120480931A0408C081E00E94FF
S1132750AE1281E08093120480931A042A960FB675
S1132760F894DEBF0FBECDBFDF91CF911F910895C6
S11327700E9450070E9494000E94BA0C0E948B068B
S11327800E94610008950E94D30808950E94B8131E
S11327908091A40784608093A407089508950E94FB
S11327A0C31308950E94B00C80E090E00895EE0FEA
S11327B0FF1F0590F491E02D0994FC0188279927C7
S11327C0E89421912032E9F3293010F02E30C8F337
S11327D02B3241F02D3239F4689404C00E943B142A
S11327E0820F911D219120532A30C0F31EF490953D
S11327F081959F4F0895FB01DC0104C08D910190E8
S1132800801921F441505040C8F7881B990B089552
S1132810FB01DC0102C001900D9241505040D8F7F9
S11328200895FB01DC018D91019080190110D9F309
S1132830990B0895FB01DC0101900D920020E1F752
S11328400895FB0151915523A9F0BF01DC014D917D
S113285045174111E1F759F4CD010190002049F0E9
S11328604D9140154111C9F3FB014111EFCF81E0B6
S113287090E0019708957AE0979F902D879F802D8F
S1132880910D11240895AEE0B0E0E9E4F4E10C9474
S113289004170D891E8986E08C831A8309838FEFC0
S11328A09FE79E838D83AE01475E5F4F6F89788D6E
S11328B0CE0101960E946514EF81F885E00FF11FA7
S11328C010822E96E4E00C942017ABE0B0E0EBE627
S11328D0F4E10C94F6166C017B018A01FC01178269
S11328E01682838181FFCCC1CE0101963C01F601A1
S11328F09381F70193FD859193FF81917F01882353
S113290009F4BAC1853239F493FD859193FF81911D
S11329107F01853229F4B60190E00E945C16E7CF6E
S1132920912C212C312CFFE1F315D8F08B3279F066
S113293038F4803279F08332A1F4232D20611DC054
S11329408D3261F0803369F4232D216016C0832D0C
S11329508260382EE32DE4603E2E2AC0F32DF86009
S11329601DC037FC2DC020ED280F2A3040F08E32D8
S1132970B9F436FC81C1232D2064322E19C036FEF1
S113298006C08AE0989E200D1124922E11C0EAE020
S11329902E9E200D1124222EF32DF0623F2E08C00E
S11329A08C3621F4832D8068382E02C0883641F499
S11329B0F70193FD859193FF81917F018111B3CF3D
S11329C0982F9F7D9554933028F40C5F1F4F9FE3FD
S11329D099830DC0833631F0833771F0833509F064
S11329E059C021C0F801808189830E5F1F4F88245C
S11329F08394912C530113C02801F2E04F0E511C13
S1132A00F801A080B18036FE03C0692D70E002C0D9
S1132A106FEF7FEFC5010E9451164C018201F32D27
S1132A20FF773F2E16C0280122E0420E511CF80108
S1132A30A080B18036FE03C0692D70E002C06FEF44
S1132A407FEFC5010E9446164C01F32DF0683F2E1E
S1132A50820133FC1BC0822D90E088169906B0F4E5
S1132A60B60180E290E00E945C162A94F4CFF5014E
S1132A7037FC859137FE81915F01B60190E00E9499
S1132A805C1621102A9421E0821A91088114910481
S1132A9071F7E8C0843611F0893641F5F80137FE44
S1132AA007C060817181828193810C5F1F4F08C0D0
S1132AB060817181072E000C880B990B0E5F1F4FEC
S1132AC0F32DFF763F2E97FF09C090958095709562
S1132AD061957F4F8F4F9F4FF0683F2E2AE030E083
S1132AE0A3010E949816882E861845C0853731F4B4
S1132AF0232D2F7EB22E2AE030E025C0932D997F1E
S1132B00B92E8F36C1F018F4883579F0B5C0803706
S1132B1019F0883721F0B0C0E92FE061BE2EB4FE71
S1132B200DC0FB2DF460BF2E09C034FE0AC0292F4E
S1132B302660B22E06C028E030E005C020E130E077
S1132B4002C020E132E0F801B7FE07C06081718164
S1132B50828193810C5F1F4F06C06081718180E088
S1132B6090E00E5F1F4FA3010E949816882E8618CE
S1132B70FB2DFF773F2E36FE0DC0232D2E7FA22E78
S1132B80891458F434FE0BC032FC09C0832D8E7EA8
S1132B90A82E05C0B82CA32C03C0B82C01C0B92C96
S1132BA0A4FE0FC0FE01E80DF11D8081803321F4E5
S1132BB09A2D997EA92E09C0A2FE06C0B394B3949F
S1132BC004C08A2D867809F0B394A3FC11C0A0FE3A
S1132BD006C0B21488F4280C922C9B180EC0B214B0
S1132BE060F4B60180E290E00E945C16B394F7CFE3
S1132BF0B21418F42B1802C0982C212CA4FE10C077
S1132C00B60180E390E00E945C16A2FE17C0A1FC0E
S1132C1003C088E790E002C088E590E0B6010CC0EC
S1132C208A2D867859F0A1FE02C08BE201C080E2B1
S1132C30A7FC8DE2B60190E00E945C16891438F47A
S1132C40B60180E390E00E945C169A94F7CF8A94D0
S1132C50F301E80DF11D8081B60190E00E945C163D
S1132C608110F5CF222009F442CEB60180E290E033
S1132C700E945C162A94F6CFF6018681978102C0E1
S1132C808FEF9FEF2B96E2E10C941217FC01059055
S1132C90615070400110D8F7809590958E0F9F1F5A
S1132CA00895FC016150704001900110D8F780959F
S1132CB090958E0F9F1F08950F931F93CF93DF93CB
S1132CC0FB01238121FD03C08FEF9FEF2CC022FF66
S1132CD016C046815781248135814217530744F435
S1132CE0A081B1819D012F5F3F4F318320838C935D
S1132CF0268137812F5F3F4F3783268314C08B0192
S1132D00EC01FB010084F185E02D0995892BE1F6A6
S1132D10D80116968D919C911797019617969C93BE
S1132D208E931697CE01DF91CF911F910F91089545
S1132D30FA01AA27283051F1203181F1E8946F93E8
S1132D406E7F6E5F7F4F8F4F9F4FAF4FB1E03ED08E
S1132D50B4E03CD0670F781F891F9A1FA11D680F2C
S1132D60791F8A1F911DA11D6A0F711D811D911D5F
S1132D70A11D20D009F468943F912AE0269F1124D4
S1132D803019305D3193DEF6CF010895462F477038
S1132D90405D4193B3E00FD0C9F7F6CF462F4F7093
S1132DA0405D4A3318F0495D31FD4052419302D0F1
S1132DB0A9F7EACFB4E0A695979587957795679597
S1132DC0BA95C9F700976105710508959B01AC0197
S1132DD00A2E06945795479537952795BA95C9F7BE
S1132DE0620F731F841F951FA01D08952F923F9299
S1132DF04F925F926F927F928F929F92AF92BF9207
S1132E00CF92DF92EF92FF920F931F93CF93DF93B2
S1132E10CDB7DEB7CA1BDB0B0FB6F894DEBF0FBE0F
S1132E20CDBF09942A88398848885F846E847D845C
S1132E308C849B84AA84B984C884DF80EE80FD805E
S1132E400C811B81AA81B981CE0FD11D0FB6F894D4
S1112E50DEBF0FBECDBFED010895F894FFCF95
S1132E5E60EA00000A0000000A580A01320A01A7BB
S1132E6E12A6126407400040018B0001820001FF8C
S1132E7E0000CD080100005B07A5125D08000100EB
S1132E8E530700000000415A4554454348002E00A4
S1132E9E636D643A002B434D51545452585354416C
S1132EAE52543A002B43545A563A002B434D515424
S1132EBE54434F4E4E4543543A002B434D515454B4
S1132ECE444953434F4E4E4C4F53543A002B434DAB
S1132EDE5154545055423A002B434D51545453556A
S1132EEE423A005355420022696E7465726E6574DF
S1132EFE2200226A696F6E657422002261697274FF
S1132F0E656C677072732E636F6D22002262736E2E
S1132F1E6C6E6574220041542B434744434F4E5408
S1132F2E3D312C224950222C2573004154004F4B25
S1132F3E0041542B4350494E3F002B4350494E3AC7
S1132F4E20002B4350494E3A5245414459004154B6
S1132F5E2B4352433D300041542B434E4D493D309B
S1132F6E2C302C302C300041542B4353534E3D30D7
S1132F7E2C300041542B435351002B4353513A20D0
S1132F8E0041542B435245473F002B435245473A89
S1132F9E200041542B434F50533F002B434F50536B
S1132FAE3A200041542B435053493F004C54452C76
S1132FBE4F6E6C696E650041542B43474154543F28
S1132FCE002B43474154543A200041542B434D5156
S1132FDE54545354415254002B434D51545453544E
S1132FEE4152543A20004552524F520041542B4301
S1132FFE4D515454414343513D302C22434F534D74
S113300E49435F4465766963653031222C31004152
S113301E542B434D51545452454C3D300041542B86
S113302E434D51545453534C4346473D302C30007A
S113303E41542B434D515454434F4E4E4543543DEE
S113304E302C227463703A2F2F61316E7763717254
S113305E7031716A6A746D2D6174732E696F742E7A
S113306E61702D736F7574682D312E616D617A6F79
S113307E6E6177732E636F6D3A38383833222C3382
S113308E2C310041542B434D515454434F4E4E4515
S113309E43543F002B434D515454434F4E4E4543DE
S11330AE543A20302C227463703A0041542B434D11
S11330BE515454535542544F5049433D302C31369C
S11330CE2C31003E0070726A30312F637030303014
S11330DE312F7375620041542B434D515454535543
S11330EE423D300041542B434D51545453544F5090
S11330FE0041542B434D515454544F5049433D3089
S113310E2C25640070726A30312F63703030303188
S113311E2F7075620041542B434D515454504159F4
S113312E4C4F41443D302C25640041542B434D51AA
S113313E54545055423D302C312C36300041542BD2
S113314E4353534C4346473D2273736C76657273F7
S113315E696F6E222C302C340041542B4353534C44
S113316E4346473D22617574686D6F6465222C3049
S113317E2C320041542B4353534C4346473D226358
S113318E6163657274222C302C22636163657274E0
S113319E2E70656D220041542B4353534C434647C6
S11331AE3D22636C69656E7463657274222C302CD7
S11331BE22636C69656E74636572742E70656D221C
S11331CE0041542B4353534C4346473D22636C6991
S11331DE656E746B6579222C302C22636C69656E76
S11331EE746B65792E70656D220022636D64223ACC
S10B31FE00226D31223A0000A9
S9030000FC
