S0180000436F736D69632841746D6567613332292E73726563A9
S113000012C02CC02BC02AC029C028C027C026C0BB
S113001025C024C023C037C021C020C01FC01EC0BB
S11300201DC01CC01BC011241FBECFE5D4E0DEBF21
S1130030CDBF10E0A0E6B0E0E0EAFFE002C005902A
S11300400D92AA3BB107D9F721E0AAEBB0E001C0B9
S11300501D92A33FB207E1F78FD7A0C7D1CF88E1A4
S11300608AB98EE880BD10BC83E389B98AB18068FF
S11300708AB9789481E08093BA0008955D9BFECF9D
S11300808CB981E008951F920F920FB60F9211243C
S11300902F933F934F935F936F937F938F939F938C
S11300A0AF93BF93EF93FF938CB104D7FF91EF917C
S11300B0BF91AF919F918F917F916F915F914F917C
S11300C03F912F910F900FBE0F901F9018950F9393
S11300D01F93DC011296ED91FC911397309729F050
S11300E0CB01BA01A901980109951F910F910895B7
S11300F00F931F93DC01362F90E040E050E0BA01EB
S113010009C0FD01E90FF11D2081420F511D611D40
S1130110711D9F5F9317A8F38A019B0166277727B8
S1130120CB01601B710B820B930B1F910F910895F0
S1130130282F823008F021E06FEF70E080E090E03B
S113014007C0B82FA72F962F8827BC01CD016F6F4A
S11301502150B9F70895DC0180E012C0282F30E067
S1130160F901EE0FFF1FEE0FFF1FEE0FFF1F2E0F03
S11301703F1FFD01E20FF31F9081941721F08F5F61
S1130180861760F38FEF0895DC0152968C91529795
S11301908E7F8B7F52968C93529750962C915097CA
S11301A02F3FF1F01D968D919C911E9730E0F9013F
S11301B0EE0FFF1FEE0FFF1FEE0FFF1F2E0F3F1F4F
S11301C0FC01E20FF31F1482838160FB82F98383B5
S11301D091E0611190E0838190FB81F98E7F8383AC
S11301E08FEF50968C93509751961C9208950F93CD
S11301F01F93CF93DF93EC018D859E85288930E092
S1130200F901EE0FFF1FEE0FFF1FEE0FFF1F2E0F62
S11302103F1FFC01E20FF31F0481802F90E0498906
S1130220228130E0240F311D8217930791F410E0EE
S113023020E030E0980111270027062B40E150E030
S113024060E070E0CE0143DF61E0CE019DDF80E13C
S113025009C0A581B681A00FB11D6C9384818F5F05
S1130260848380E0DF91CF911F910F9108954F9285
S11302705F926F927F929F92AF92BF92CF92DF92E2
S1130280EF92FF920F931F93CF93DF9300D000D090
S113029000D0CDB7DEB78111ECC1062F182FE82EA0
S11302A0F12C83E18E9D90018F9D300D1124205AF5
S11302B03F4F3E832D83D90152968C91529781FDF5
S11302C0BFC16B3759F580FF13C0F90100890F3F97
S11302D079F010E020E030E02B6740E150E060E08E
S11302E070E0CD01F4DE61E08D819E814DDF0BC0B5
S11302F083E18E9DF0018F9DF00D1124EE58FF4F88
S113030080818160808383E18E9DF0018F9DF00D5B
S11303101124E05AFF4F8FEF808BABC180FFA9C13E
S11303206C3771F482FF0CC083E18E9DF0018F9DC8
S1130330F00D1124EE58FF4F80818260808399C1B3
S11303400D3709F0B8C083E18E9DF0018F9DF00D4B
S11303501124E05AFF4F25853685808990E06C0191
S1130360CC0CDD1CCC0CDD1CCC0CDD1C8C0D9D1DC3
S11303706901C80ED91E9188F60112818481482F23
S113038050E0A92CB12C9501210F311D42175307C0
S113039009F06DC01123B9F1812FCADE69837A8314
S11303A08B839C83692DD60115968D919C9116970C
S11303B09FDE49805A806B807C80462257226822C7
S11303C07922E0E040E050E0BA0112C0762F652FB8
S11303D0542F4427D60115962D913C911697C501AB
S11303E08E0F911DD901A80FB91F8C91482BEF5F77
S11303F0E11760F389819A81AB81BC814823592339
S11304006A237B2306C0412C512C320140E050E08A
S1130410BA01441555056605770591F4D60117967A
S1130420ED91FC911897309731F015966D917C9170
S11304301697892D099560E08D819E81A5DE19C1ED
S113044061E08D819E81A0DE83E18E9DF0018F9D10
S1130450F00D1124E05AFF4F408950E060E070E055
S11304606F60930182018D819E8131DE02C190E033
S1130470A0E0B0E0BC0155274427892D90E0A0E01E
S1130480B0E0BA2FA92F982F8827842B952BA62B61
S1130490B72BAC01BD01412B8A019B013D6740E1B3
S11304A050E060E070E08D819E8111DE61E08D811D
S11304B09E816ADEDEC093E19E9DF0019F9DF00D5A
S11304C01124E05AFF4F90899F3F19F57F01402F77
S11304D06785858596853FDEF701808B8F3F09F020
S11304E0C8C061E08D819E814FDE812F90E0A0E045
S11304F0B0E0DC0199278827AC01BD01402B8A01BB
S11305009B014DE050E060E070E08D819E81DFDD75
S1130510B0C082FD90C083E18E9DF0018F9DF00DEF
S11305201124E05AFF4F25853685892F90E06C0110
S1130530CC0CDD1CCC0CDD1CCC0CDD1C8C0D9D1DF1
S11305406901C80ED91ED60111968C91081769F05D
S1130550811122C083E18E9DF0018F9DF00D112445
S1130560E05AFF4F80858017B8F0F6018281813010
S113057011F0811111C023E12E9DC0012F9D900D1A
S11305801124FC01EE58FF4F208124602083FC01DC
S1130590E05AFF4F018B6DC061E08D819E81F4DDD7
S11305A0812F90E0A0E0B0E0B82FAA2799278827F0
S11305B023E12E9DF0012F9DF00D1124E05AFF4FF1
S11305C04088512C612C712C320155244424482A32
S11305D0592A6A2A7B2A802F90E0A0E0B0E0BA2F43
S11305E0A92F982F882784299529A629B729F601A8
S11305F04181228130E0215031090024369527952C
S11306000794369527950794322F202DB901642B32
S1130610AB01052E000C660B770B8A019B01082B9E
S1130620192B2A2B3B2B4EE050E060E070E08D81CB
S11306309E814DDD1EC0602F8D819E81D8DD19C045
S113064083E18E9DF0018F9DF00D1124E05AFF4F40
S113065080898F3F19F08D819E81C9DD83E18E9D54
S1130660F0018F9DF00D1124EE58FF4F80818D7F96
S1130670808380E026960FB6F894DEBF0FBECDBF10
S1130680DF91CF911F910F91FF90EF90DF90CF906A
S1130690BF90AF909F907F906F905F904F90089520
S11306A02F923F924F925F926F927F928F929F927E
S11306B0AF92BF92CF92DF92EF92FF920F931F936C
S11306C0CF93DF9300D000D01F92CDB7DEB7C82EF2
S11306D06983D42E3B832A83882E912C23E1289D81
S11306E0C001299D900D11249C01205A3F4F1901EE
S11306F0D9011A96AD90BC901B97BBE06B9FA00CE0
S1130700B11C1124D501412C512C320120E0E4E02C
S1130710F0E0FD83EC831FC01596ED91FC911697D4
S1130720E20FF11D3081430E511C611C711C8C8140
S11307309D8101963B57333010F431E001C030E025
S1130740332331F08C819D8102969D838C8302C07A
S11307509D838C832F5F2D15F8F2D50113968C9110
S1130760E7DC7094609450944094411C511C611CCB
S1130770711C4622572268227922F501838190E078
S1130780019734C09C01220F331F220F331F220F05
S1130790331F4FEF50E060E070E0022E04C0440FBE
S11307A0551F661F771F0A94D2F7442155216621ED
S11307B0772104C076956795579547952A95D2F782
S11307C02C813D812F5F3F4F4B57433010F441E064
S11307D001C040E0442339F02C813D812E5F3F4F1E
S11307E03D832C8302C03D832C830197992354F6C7
S11307F083E1889DF001899DF00D1124E05AFF4F9B
S11308008185813039F48C819D81880F991F0196EF
S11308109D838C8323E1289DC001299D900D112483
S1130820FC01E05AFF4F8185813009F0BEC0AC81E4
S1130830BD81AE15BF0508F09AC087E3F801808337
S11308408BE38183D5018C91982F92959F70905D55
S113085092838F70805D83838D2D82958F70805DF0
S113086084838D2D8F70805D858340E026E030E0A9
S113087024C0D5011596ED91FC911697E40FF11D56
S11308808081F801E20FF31F95E8980F933030F45C
S113089097E390839CE3918392E001C090E0E90F99
S11308A0F11D582F52955F70505D50838F70805D9D
S11308B081839E5F290F311D4F5F4D15D0F2F501E5
S11308C0438150E0415051093BC0BA01660F771F84
S11308D0660F771F660F771F8FEF90E0A0E0B0E000
S11308E0062E04C0880F991FAA1FBB1F0A94D2F7B3
S11308F084219521A621B72104C0B695A795979583
S113090087956A95D2F7F801E20FF31F65E8680F3F
S1130910633030F467E360836CE3618362E001C0B9
S113092060E0E60FF11D782F72957F70705D708323
S11309308F70805D81836E5F260F311D4150510998
S113094055231CF6F801E20FF31F87E380838DE340
S11309508183C90102962D5F3F4FF801E80FF91F0B
S11309601082AA81BB812D933C9380E0B3C0EC81BB
S1130970FD818F0120E030E09801112700274C2DE4
S113098050E060E070E0762F652F542F44276261B9
S1130990C701A0E0B0E0082B192B2A2B3B2BF981CF
S11309A04F2BC10194DB82E195C02C813D812E1532
S11309B03F0508F072C08BE7D8018C93F501808164
S11309C011968C9311971296DC9290E023E030E01C
S11309D01BC0D5011596ED91FC911697E90FF11DF9
S11309E04081F801E20FF31F85E8840F833020F47F
S11309F08CE7808381E001C080E0E80FF11D408333
S1130A008F5F280F311D9F5F9D1518F3F5014381FA
S1130A1050E04150510932C0BA01660F771F660F8A
S1130A20771F660F771F8FEF90E0A0E0B0E0062EEF
S1130A3004C0880F991FAA1FBB1F0A94D2F78421F0
S1130A409521A621B72104C0B695A79597958795BA
S1130A506A95D2F7F801E20FF31F65E8680F633077
S1130A6020F46CE7608361E001C060E0E60FF11DF3
S1130A7080836F5F260F311D41505109552364F661
S1130A80C9010196F801E20FF31F2DE72083AA8123
S1130A90BB818D939C9380E01DC0EC81FD818F010F
S1130AA020E030E09801112700274C2D50E060E051
S1130AB070E0762F652F542F44276261C701A0E0B0
S1130AC0B0E0082B192B2A2B3B2BF9814F2BC101AA
S1130AD0FEDA82E10F900F900F900F900F90DF914C
S1130AE0CF911F910F91FF90EF90DF90CF90BF9027
S1130AF0AF909F908F907F906F905F904F903F90BA
S1130B002F9008953F924F925F926F927F928F92AF
S1130B109F92AF92BF92CF92DF92EF92FF920F9388
S1130B201F93CF93DF9300D0CDB7DEB7482E562E58
S1130B30322ED7D0F82E81116AC0842C912C23E157
S1130B40289DC001299D900D11249C01205A3F4FDE
S1130B506901F901A284B384FBE05F9EA00CB11C7F
S1130B601124F901E680F780648075801A82198265
S1130B70828984FD17C083E1889DF001899DF00D71
S1130B801124EE58FF4F80818061808383019E0190
S1130B902F5F3F4F432D652D842D82DDF82E81116B
S1130BA019C002C081E04AC083E1889DF001899D9B
S1130BB0F00D1124E05AFF4F0190F081E02DB301B4
S1130BC089819A810995F82E811104C0F5018481E7
S1130BD080618483FF20C9F083E1889DF001899DB1
S1130BE0F00D1124EE58FF4F80818F7E8083042DF9
S1130BF010E020E030E098011127002705294F2D4F
S1130C0050E060E070E0C60162DA8F2D17C0411039
S1130C1015C0F3E14F9EC0011124042D10E020E023
S1130C2030E098011127002705294F2D50E060E09E
S1130C3070E0805A9F4F4BDA8F2D00C00F900F90B9
S1130C40DF91CF911F910F91FF90EF90DF90CF90A4
S1130C50BF90AF909F908F907F906F905F904F90D8
S1130C603F9008950F931F93CF93811136C0082F9F
S1130C7010E083E1809FF001819FF00D1124EE5874
S1130C80FF4F80818F7E8083C0E01CC083E1809F02
S1130C90F001819FF00D1124E05AFF4F0284F38587
S1130CA0E02D8BE0C89FE00DF11D1124848184FFA9
S1130CB008C08F7E84830780F085E02D309709F08B
S1130CC00995CF5F83E1809FF001819FF00D11248E
S1130CD0E05AFF4F8485C817C8F2CF911F910F9136
S1130CE00895EF92FF920F931F93CF93DF931F9278
S1130CF0CDB7DEB7298381115AC090E023E1289F44
S1130D00F001299FF00D1124E05AFF4F248562174A
S1130D1008F04FC023E1289FF001299FF00D112412
S1130D20E05AFF4FE284F3842BE0629FE00CF11C55
S1130D301124D70111962C913981231779F02111AF
S1130D403AC03323D1F123E1289FF001299FF00D0C
S1130D501124E05AFF4F8085831788F18A01D70157
S1130D601996ED91FC911A97309731F0BE016F5F9F
S1130D707F4FCA01099501C080E0882381F020C01B
S1130D80D7011596ED91FC911697E20FF31FD80148
S1130D90A20FB31F9C9190832F5F3F4F02C020E0AE
S1130DA030E0498150E02417350754F309C081E14C
S1130DB007C080E105C08EE003C08EE001C08EE074
S1130DC00F90DF91CF911F910F91FF90EF900895B5
S1130DD00895CF92DF92EF92FF921F93CF93DF9308
S1130DE07C018091BA00813029F58091BB00882371
S1130DF091F011E020C06B018FEFC81AD80AFB01F3
S1130E0080813CD9882371F081E08093BB002196D6
S1130E1010E0B60103C0C0E0D0E014E1CE15DF0558
S1130E2050F301C013E1111102C080E01BDF1092E6
S1130E30BB0001C014E1812FDF91CF911F91FF907E
S1130E40EF90DF90CF900895823079F40BC0E92FB2
S1130E50F0E0DB012C91E254FF4F20839F5F6F5F32
S1130E607F4F01C090E0981790F30895823079F491
S1130E700BC0E92FF0E0DB012C91E450FF4F2083FD
S1130E809F5F6F5F7F4F01C090E0981790F30895C4
S1130E90823079F40BC0E92FF0E0DB012C91E450AF
S1130EA0FF4F20839F5F6F5F7F4F01C090E09817D3
S1130EB090F30895682F80E0DAD9089587B38160AC
S1130EC087BB81B3806881BB87B3806287BB81B3F2
S1130ED0806181BB84B3806284BB0895C0D80895C7
S1130EE086E0E6EFF0E0A7E8B1E001900D928A9584
S1130EF0E1F726E047E851E060E080E003DE089592
S1130F008091BE0080FF04C085B3806285BB03C0AE
S1130F1085B38F7D85BB42E050E06CEB70E08EEBD7
S1130F2090E02FD0892B69F40895282F30E0F9013F
S1130F30E254FF4F9081F901EF53FF4F90838F5F8D
S1130F4001C080E0823088F38091C1009091C2009A
S1130F5090938E0180938D0122E04DE851E061E091
S1130F6080E0D0DD8091BE009091BF009093BD00E1
S1130F708093BC00B5DF08957894A0DFAFDFC0DFB5
S1130F80FECFFB01DC0104C08D910190801921F496
S1130F9041505040C8F7881B990B0895F894FFCF2F
S1130FA0E906E8068F01640064008E000473000300
S1130FB0FF0000CD020100004E012407DC02010005
S1130FC00084013607C04E010000FE004807AD064C
S1130FD00001008701000000005D020001008D0196
S1130FE0000000005133000100510100000000CA5C
S10D0FF0010001004D0100000000A3
S9030000FC
